:1000C200C2A58F807F017E001200D3D2A77F057E5A
:0100D200002D
:1000D300D3EF9400EE9400400F7DC77C01DCFEDD7E
:0800E300FAEF1F70EB1E80E82C
:0100EB0022F2
:0A011900C2A7C2A61200C2C2A722AC
:0A012300C2A7D2A61200C2C2A72292
:1000EC007F381201197F0C1201197F061201197F3A
:0900FC00011201197FC002011973
:10010500110848656C6C6F20576F726C6420476FDF
:030115006F640014
:10008F00E4F519F51A1200EC851A19E519C3941045
:10009F00500E74082519F8E6FF120123051980EB9D
:1000AF00051AE51A540F7002F51A7FF47E0112003B
:0300BF00D380D219
:03000000020003F8
:0C000300787FE4F6D8FD75811A02004AEF
:10000F0002008FE493A3F8E493A34003F68001F278
:10001F0008DFF48029E493A3F85407240CC8C333F2
:10002F00C4540F4420C8834004F456800146F6DFC1
:10003F00E4800B0102040810204080900105E47E4B
:10004F00019360BCA3FF543F30E509541FFEE493B6
:10005F00A360010ECF54C025E060A840B8E493A37D
:10006F00FAE493A3F8E493A3C8C582C8CAC583CAA8
:10007F00F0A3C8C582C8CAC583CADFE9DEE780BE60
:0101180000E6
:00000001FF
