:10000300438910758DFF758BFFD2ABD2AFD28E2291
:10001E00120003D3E50B9464E50A94004022E4F544
:10002E000AF50B30000B740A2509F509E43508F5BD
:10003E000820000C74F62509F50974FF3508F5083B
:10004E00E509B4E807E508B40302C200E50945086E
:10005E007002D200D3E50D94E8E50C94034005E45C
:10006E00F50CF50DC3E50D9509E50C95085004D278
:07007E00A180A0C2A1809C3B
:03001B000200855B
:10008500C0E0758DFF758BFF050DE50D7002050C44
:0B009500050BE50B7002050AD0E032FD
:030000000200A05B
:0C00A000787FE4F6D8FD75812002001E78
:00000001FF
