:10041200B3C2000000000000000000000000FE0067
:100422000000000000000000000000000000330097
:100432000000BDF00018280808C8080F182040075F
:10044200F860800000180601007F8040030C100055
:10045200FF000001C6BD0060A2232E32222232EC30
:100462002424342C6480008080814D552525554DEF
:10047200878991214100CED20020A02C2220FF208A
:10048200202223FE2424242000F84122140C1320CD
:100492004041027F84480800B0AE000002023242AE
:1004A2000202FE02026212020200000101010101C7
:1004B2000101FF01010101010101C4E3008080404B
:1004C20020504844C344485020408080004040426D
:1004D2005A6242427F4242724A424040A3A100080D
:1004E200080808E80F18688808865A22FE000030BB
:0E04F2000905017F81410D1120070804FF005C
:0D077900E50A2410FF120786E50B2404FF9B
:10078600C2B2D2A5C2A6C2A700008F800000D2A71F
:010796002240
:1007B000C2B2D2A5D2A6C2A700008F800000D2A7E5
:0107C0002216
:10062F00C2B3E4FF0FBF64FCC2B2D2B37FE21207C2
:10063F0086E4FF0FBF64FC7FA11207867FC81207F5
:10064F00867FA61207867FA41207867FA2120786CF
:10065F007FF81207867F011207867F811207867F38
:10066F00231207867F251207867F2F120786E4FF46
:10067F000FBF64FC7F401207867FAF120786E4FF2F
:04068F000FBF64FC39
:010693002244
:10075600E4FEEE24B0FF1207867F101207867F04A0
:10076600120786E4FDE4FF1207B00DBD80F70EBE4A
:0207760008E099
:01077800225E
:040500008F088D09CA
:10050400E509D3940740037F0022E508D394804093
:10051400037F002274B02509F509FF12078612062D
:10052400E570030205B8AF09120786E508C4540F45
:10053400F50AE508540FF50B120779E4FE1206E5F7
:10054400FFEE75F022A42412F582E43404F583E46A
:10055400936F70509000011206FEFFEE75F022A416
:100564002413F582E43404F583E4936F7036FDBDFF
:10057400100AE50904FF120786120779EE75F022C6
:10058400A42414F582E43404F583E5822DF582E491
:100594003583F583E493FF1207B00DBD20D17410A9
:1005A4002508F5080EEE64327093740229F9E43AD2
:0605B400FA0205227F019E
:0105BA00221E
:10000300B3C2BDF0C6BDCED2B0AEC4E3A3A100FF60
:10001300FFFFFFFF3F5FAFFFFFFFFFFFFFFFFFFF9D
:10002300FFFFFFFFFFFFFFFFFFFFFFFFFFFFFFFFDD
:10003300FEF8A4F7FFFFFEFCF0F7FFFDF113C3FF8B
:10004300EFCF8F070F8F0F0F1F1F1F1FBFFF9FDFE5
:100053001FDF9FCF8FEF8FE7C7E7D7E7E3F3E3F127
:10006300EBF1F5F1F4F8F8E0E8C0D5E7DFF0FCFFD9
:10007300FFC7FAF8E4E1FFFFE2E4FFFFFFFFE7FF5A
:10008300FFFFFFFFFFFFFFFFFFEAFCF8E3C7CFE738
:10009300F3F1F9FCF6FFFFFFFFFFFFFFFFF7FFFFA1
:1000A3007BFFEFBF1F173FFFFF3F3F3F3F2FBFFFC9
:1000B300B3193E3F5F1FDFF7F77B3D1E4EFFFFFF88
:1000C300FFFFFD4A348050C2C0E0F0FCFFFFFCF3A9
:1000D300FFFFFFFFFFFFFFFFFFFFFFFFFFFFFFFF2D
:1000E300FFFFFFFFFFFFFFFFFFFFFFFFFFFFFFFF1D
:1000F300FFFFFFFFFFFFFFFFFFFFFFFFFFFFFFFF0D
:10010300FFFFFFFFFFFFFFFFFFFFFFFFFFFFFF1FDC
:100113001F1F1FFFEF071F0F03E3F1FF0F01000076
:1001230010FBFFC6000000053FFFF2800010010F27
:10013300FFFEE0120040031FFFFEE1A941532177B8
:10014300797EFCFEFFFFFFFFFFFFFFFFFFFFFFFFC7
:10015300BFAFD7378B27D321D5C8A1845082288539
:1001630014BB7F7F3FFF1FF0FDFFFFFFFFFFFFFF7C
:10017300FFFFFFFFFFFFFFFFFFFFFFFFFFFFFFFF8C
:10018300FFFFFFFFFFFFFFFFFFFFFFFFFFFFFF007B
:100193000000FFFF82000000007FFFFF80000000DF
:1001A300001FFFFFE0802080419FFFFF38E11078B0
:1001B300F9FF8F57861F7FFFE802084200052009D9
:1001C30000014A07470313070947FFFFFBE688FFC0
:1001D3007FFFF4E9D2A4AA717470FA703A88358863
:1001E30018AAC9FCF5F8F4FFFFFFFFFFFFFFFFFFAD
:1001F300FFFFFFFFFFFFFFFFFFFFFFFFFFFFFFFF0C
:10020300FFFFFFFFFFFFFFFFFFFFFFFFFFFFFF38C2
:1002130070E08003071EF8C00000010F3FFEF8E501
:100223009A45A75F7FFCE28800810F3F7EF0C2A062
:10023300010F3F7C62F0C0875F3E7064C38A8442D3
:10024300002200080008400800400103270F1F9FF9
:100253001E3D3E3D7A79726DF0E5D0E4C9F0C4A845
:10026300E0DBE4DFFFDFFFFFFEF5E9D7FFFFFFFF82
:10027300FBFFFFFFFFFFFFFFFFFFFFFFFFFFFFF797
:10028300EB2377FFFFFFBFFFFFFFFFFFFFFFFF70C2
:10029300E081830F1860C0871E78E0800000070F9D
:1002A3001F3EF8E2C08103070E1C3870E0C08103D3
:1002B300070E3E78F0E09103075E3E78F4C1A38712
:1002C3001FBC79E4E0A508E015E805F00DF0AED019
:1002D300FE68F5F8FEFDFDFBFCFFFBFFF7EFFFFFFC
:1002E300FFFFFFFEFFFFFFFFFFFFFFFFFFFFFFFF1C
:1002F300FFFFFF7F7F1F2F934FFFFFFFEFFF3F4E58
:100303002B8015E1FF1F1E0F5FFF8F870707FFC0BD
:100313008001070E1C3870E1C3060899D3722604C6
:100323000888F8F10307060C7870E080C1C3C7DFC3
:10033300FEFAE0E0E8D1E7DFFEF8FCF064F3677F64
:100343007E3C7AB13D73373E5F3D9D3B9D3E5F1AD8
:10035300AD1F4D2E0F17872B0711430903952381DB
:100363004BA18BA3C9A3C9E3E9D3E16BF3E7F1E79E
:100373002933F8E1FA1439FCF7930579F289540823
:10038300420C9F7FE39000007CFFFFE380187F0116
:1003930003071E7CE0804C3D1808C0F1190C0603CE
:1003A30001C0E0B010042308430491024802154041
:1003B300020520054801220882002A800550800595
:1003C3009001A4409045A0D4C1D0E4C8F0E8F2E87D
:1003D300F0FAF8F5F8FCFCFAF5FCFBFEFFFFFFFF73
:1003E300FFFFFFFFFBEFBFFCF7CFFFFD9047FFFFD2
:1003F300FFF8002F8700F0FCFFFFFFFCF8E395C236
:0F04030028800228473FFF7CF8F0E30F1F7CF0B2
:1006940012062F120756E4F50C7F40120786E50C6C
:1006A40024B0FF1207867F101207867F0412078684
:1006B400E4F50D7412250FF5827400350EF583E40C
:1006C40093FF1207B0050FE50F7002050E050DE547
:1006D4000DC3948040DD050CE50CC3940840BA803A
:0106E400FE17
:10079700D3EF9400EE9400400F7D267C82DCFEDDD3
:0807A700FAEF1F70EB1E80E861
:0107AF002227
:1005BB0012062F120756E4F510E51024B0FF1207B0
:1005CB00867F101207867F04120786E4F5117FFFE2
:1005DB001207B07F017E001207970511E511C39436
:1005EB008040EB0510E510C3940840CDE4F510E511
:1005FB0010C3940850C0E51024B0FF1207867F107B
:10060B001207867F04120786E4F511E4FF1207B088
:10061B007F017E001207970511E511C3948040EB13
:04062B00051080CB6B
:10072B0012062F120756E4F5121207567BFF7A00BA
:10073B007903AD12E4FF1205007F647E0012079768
:0B074B000512E512C3940840E080DBBB
:030000000207C133
:0C07C100787FE4F6D8FD758112020694E2
:1006E500BB010689828A83E0225002E722BBFE0213
:0906F500E32289828A83E4932246
:1006FE00BB010CE58229F582E5833AF583E02250B1
:10070E0006E92582F8E622BBFE06E92582F8E222FA
:0D071E00E58229F582E5833AF583E4932214
:00000001FF
