BL51 BANKED LINKER/LOCATER V6.22                                                        03/13/2022  16:30:46  PAGE 1


BL51 BANKED LINKER/LOCATER V6.22, INVOKED BY:
D:\KEIL\C51\BIN\BL51.EXE main.obj TO timer RAMSIZE (256)


MEMORY MODEL: SMALL


INPUT MODULES INCLUDED:
  main.obj (MAIN)
  D:\KEIL\C51\LIB\C51S.LIB (?C_STARTUP)


LINK MAP OF MODULE:  timer (MAIN)


            TYPE    BASE      LENGTH    RELOCATION   SEGMENT NAME
            -----------------------------------------------------

            * * * * * * *   D A T A   M E M O R Y   * * * * * * *
            REG     0000H     0008H     ABSOLUTE     "REG BANK 0"
            DATA    0008H     0002H     UNIT         ?DT?MAIN
            IDATA   000AH     0001H     UNIT         ?STACK

            * * * * * * *   C O D E   M E M O R Y   * * * * * * *
            CODE    0000H     0003H     ABSOLUTE     
                    0003H     0008H                  *** GAP ***
            CODE    000BH     0003H     ABSOLUTE     
                    000EH     07F2H                  *** GAP ***
            CODE    0800H     0027H     UNIT         ?PR?TIMER0?MAIN
            CODE    0827H     0010H     UNIT         ?PR?TIMER0INIT?MAIN
            CODE    0837H     000CH     UNIT         ?C_C51STARTUP
            CODE    0843H     0005H     UNIT         ?PR?MAIN?MAIN



OVERLAY MAP OF MODULE:   timer (MAIN)


SEGMENT
  +--> CALLED SEGMENT
---------------------
?C_C51STARTUP
  +--> ?PR?MAIN?MAIN

?PR?MAIN?MAIN
  +--> ?PR?TIMER0INIT?MAIN



SYMBOL TABLE OF MODULE:  timer (MAIN)

  VALUE           TYPE          NAME
  ----------------------------------

  -------         MODULE        MAIN
  C:0000H         SYMBOL        _ICE_DUMMY_
  D:0090H         PUBLIC        P1
  D:00A0H         PUBLIC        P2
BL51 BANKED LINKER/LOCATER V6.22                                                      03/13/2022  16:30:46  PAGE 2


  D:00B0H         PUBLIC        P3
  B:00A8H.7       PUBLIC        EA
  D:00A8H         PUBLIC        IE
  D:00B8H         PUBLIC        IP
  C:0843H         PUBLIC        main
  D:0098H         PUBLIC        SCON
  D:0089H         PUBLIC        TMOD
  D:0088H         PUBLIC        TCON
  B:00A0H.0       PUBLIC        led
  B:00A8H.1       PUBLIC        ET0
  D:008CH         PUBLIC        TH0
  D:008AH         PUBLIC        TL0
  C:0800H         PUBLIC        timer0
  B:0088H.4       PUBLIC        TR0
  D:00C8H         PUBLIC        T2CON
  C:0827H         PUBLIC        timer0Init
  D:00D0H         PUBLIC        PSW
  -------         PROC          TIMER0INIT
  C:0827H         LINE#         8
  C:0827H         LINE#         9
  C:0827H         LINE#         10
  C:082AH         LINE#         11
  C:082DH         LINE#         12
  C:0830H         LINE#         13
  C:0832H         LINE#         14
  C:0834H         LINE#         15
  C:0836H         LINE#         17
  -------         ENDPROC       TIMER0INIT
  -------         PROC          MAIN
  C:0843H         LINE#         19
  C:0843H         LINE#         20
  C:0843H         LINE#         21
  C:0846H         LINE#         22
  -------         ENDPROC       MAIN
  -------         PROC          TIMER0
  -------         DO            
  D:0008H         SYMBOL        i
  -------         ENDDO         
  C:0800H         LINE#         25
  C:0804H         LINE#         28
  C:0807H         LINE#         29
  C:080AH         LINE#         30
  C:0812H         LINE#         31
  C:081AH         LINE#         32
  C:081AH         LINE#         33
  C:0820H         LINE#         34
  C:0822H         LINE#         35
  C:0822H         LINE#         36
  -------         ENDPROC       TIMER0
  -------         ENDMOD        MAIN

******************************************************************************
* RESTRICTED VERSION WITH 0800H BYTE CODE SIZE LIMIT; USED: 003FH BYTE ( 3%) *
******************************************************************************

Program Size: data=11.0 xdata=0 code=78
LINK/LOCATE RUN COMPLETE.  0 WARNING(S),  0 ERROR(S)
