:1004C7003F065B4F666D7D077F6F777C395E79717D
:0804D70000000000000000001D
:1004DF0002190000041B00000000041500000000BA
:1003F3001204F0120500AF18AE17AD16AC151201BA
:10040300E2208EF2AF8DEFFEE4251EFBEE351DFAE2
:10041300E4351CF9E4351BF8AF8BE4FCFDFEEB2F50
:10042300F518EE3AF517ED39F516EC38F515E4F550
:100433001EF51DF51CF51BF58DF58BD28CD28E8028
:01044300B503
:1004F000438901758C3C758AB0D2A9D2AFD28C22C7
:03000B0002048864
:10048800C0E0758C3C758AB0051AE51A700205192A
:10049800641445197008F519F51AC28EC28CD0E09B
:0104A8003221
:0F050000438950E4F58DF58BD2ABD2AFD28E226A
:0B000E00EF1FAC0670011E4C70F622C4
:03001B000204A933
:1004A900C0E0C0D0E4251EF51EE4351DF51DE51C90
:0E04B9003401F51CE4351BF51BD0D0D0E03229
:0801E2008F0B8E0A8D098C08B9
:1001EA00E4FD750C08780D7C007BFF7A0479D7FE54
:1001FA007F081200EEE47B0AFAF9F8AF0BAE0AADFB
:10020A0009AC08120444AF038F14E47B0AFAF9F824
:10021A00AF0BAE0AAD09AC08120444E47B0AFAF942
:10022A00F8120444AF038F13E47B64FAF9F8AF0BB6
:10023A00AE0AAD09AC08120444E47B0AFAF9F812D2
:10024A000444AF038F12E47BE87A03F9F8AF0BAEEC
:10025A000AAD09AC08120444E47B0AFAF9F812045C
:10026A0044AF038F11E47B107A27F9F8AF0BAE0A7B
:10027A00AD09AC08120444E47B0AFAF9F812044402
:10028A00AF038F107BA07A8679017800AF0BAE0A94
:10029A00AD09AC08120444E47B0AFAF9F8120444E2
:1002AA00AF038F0F7B407A42790F7800AF0BAE0A0B
:1002BA00AD09AC08120444E47B0AFAF9F8120444C2
:1002CA00AF038F0E7B807A9679987800AF0BAE0ACF
:1002DA00AD09AC08120444E47B0AFAF9F8120444A2
:1002EA00AF038F0DE4FDEDC3950C5070ED2408C3E8
:1002FA00950CB40800504D900308F828287302039F
:10030A002002032402032C02033002033802033CB6
:10031A00020344020348C2A28002D2A2C2A3C2A418
:10032A008022C2A28002D2A2D2A3C2A48016C2A2F2
:10033A008002D2A2C2A3D2A4800AC2A28002D2A2FE
:10034A00D2A3D2A4740D2DF8E69004C793F5807F4A
:0C035A000A7E0012000EE4F5800D808A7F
:010366002274
:0300000002036791
:0C036700787FE4F6D8FD75811E0203AE1D
:10001E00E709F608DFFA8046E709F208DFFA803EC4
:10002E0088828C83E709F0A3DFFA8032E309F608B1
:10003E00DFFA8078E309F208DFFA807088828C8319
:10004E00E309F0A3DFFA806489828A83E0A3F608CD
:10005E00DFFA805889828A83E0A3F208DFFA804CA7
:10006E0080D280FA80C680D4806980F2803380107E
:10007E0080A680EA809A80A880DA80E280CA8033E7
:10008E0089828A83ECFAE493A3C8C582C8CCC5835F
:10009E00CCF0A3C8C582C8CCC583CCDFE9DEE7802F
:1000AE000D89828A83E493A3F608DFF9ECFAA9F0AE
:1000BE00EDFB2289828A83ECFAE0A3C8C582C8CC04
:1000CE00C583CCF0A3C8C582C8CCC583CCDFEADE1D
:1000DE00E880DB89828A83E493A3F208DFF980CC7F
:1000EE0088F0EF60010E4E60C388F0ED2402B40478
:1000FE000050B9F582EB2402B4040050AF2323451F
:06010E00822390006E73D5
:10044400C2D5E830E70FB2D5E4C39BFBE49AFAE4E3
:1004540099F9E498F8EC30E717B2D512047A12014E
:1004640050E4C39BFBE49AFAE499F9E498F8800316
:1004740012015030D50DE4C39FFFE49EFEE49DFDC0
:04048400E49CFC22D6
:100373000203F3E493A3F8E493A34003F68001F2AA
:1003830008DFF48029E493A3F85407240CC8C3338B
:10039300C4540F4420C8834004F456800146F6DF5A
:1003A300E4800B01020408102040809004DFE47E07
:1003B300019360BCA3FF543F30E509541FFEE4934F
:1003C300A360010ECF54C025E060A840B8E493A316
:1003D300FAE493A3F8E493A3C8C582C8CAC583CA41
:1003E300F0A3C8C582C8CAC583CADFE9DEE780BEF9
:0104EF00000C
:1001140075F008758200EF2FFFEE33FECD33CDCCA2
:1001240033CCC58233C5829BED9AEC99E582984025
:100134000CF582EE9BFEED9AFDEC99FC0FD5F0D602
:10014400E4CEFBE4CDFAE4CCF9A88222B800C1B92C
:100154000059BA002DEC8BF084CFCECDFCE5F0CB6A
:10016400F97818EF2FFFEE33FEED33FDEC33FCEBA3
:1001740033FB10D703994004EB99FB0FD8E5E4F95E
:10018400FA227818EF2FFFEE33FEED33FDEC33FC4B
:10019400C933C910D7059BE99A4007EC9BFCE99A3F
:1001A400F90FD8E0E4C9FAE4CCFB2275F010EF2F84
:1001B400FFEE33FEED33FDCC33CCC833C810D70784
:1001C4009BEC9AE899400AED9BFDEC9AFCE899F8BF
:0E01D4000FD5F0DAE4CDFBE4CCFAE4C8F92252
:00000001FF
