:100145003F065B4F666D7D077F6F777C395E797102
:010155007633
:040156007F017E00A7
:0B015A00EF1FAC0670011E4C70F62277
:1000EF00E4FDED14600B14601024027012C2A280A4
:1000FF0002D2A2C2A3C2A48006C2A2D2A3C2A47477
:10010F000F2DF8E6F5807F647E0012015AE4F5802A
:04011F000DBD03CE41
:0101230022B9
:07017100D288D2A8D2AF2210
:10012400120171E50BC4540F90014593F50FE50BD3
:10013400540F93F510900155E493F5111200EF80DC
:01014400E2D8
:03000300020006F2
:10000600C0E0C0D075D000C000C002C003C004C0AC
:0500160005C006C00753
:10001B007508007FBC7E0212015A30B2030200DC6D
:10002B007BE87A0320B214EB1BAE0270011AD39457
:10003B0000EE9400400512015680E920B203020045
:10004B00DC7A017BF430B214EB1BAE0270011AD3D5
:10005B009400EE9400400512015680E9E4FD7517FB
:10006B00007A007B3C20B214EB1BAE0270011AD35A
:10007B009400EE9400400512015680E97A017BF45E
:10008B0030B221EB1BAE0270011AD39400EE940038
:10009B0040127F0A7E0012015A0508E508D3941E10
:1000AB0040DE802D74092DF8C000E6C313D000F696
:1000BB00E508C39408400874092DF8E64480F675EA
:1000CB0008000517E517C3940840960DED640470FE
:0100DB008D97
:1000DC00D007D006D005D004D003D002D000D0D0A9
:0300EC00D0E0322F
:0300000002016595
:0C016500787FE4F6D8FD758117020124B4
:00000001FF
