:1002C9008084444424140CFF0C1424444484800086
:1002D90008080808094989790D0B09080808080060
:1002E9000022261A12027E8022261A12027E00009D
:1002F90020212925232529F1292523252921200004
:100309001010F01F10F000FE22222222FE00000031
:10031900402215081661407F424242427F40400018
:100329008040301E101010FF101010101010000027
:10033900404042424242427F4242424242404000A1
:10034900000000FE82828282828282FE000000001A
:10035900000000FF40404040404040FF00000000D6
:1003690000E000FF1020080808FF0808F800000056
:10037900010000FF008141310D030D3141818100F0
:100389000000E09C848484F482828382808000005F
:10039900002010080640807F000002040830000099
:1003A9000000E020607F7F7F7F7F626020E00000A7
:1003B900C0E0A6FE7CFEFFFEFEFCFFFE7C4780C07F
:1003C9000102040810204080000000000000000025
:1003D9000000000000000000010204081020408015
:1004AE00E4F528F529752A80AE28AF29AD2A7C00FF
:1004BE001201268C288D297B007A0079080529E502
:1004CE00297002052814FD12017B1204637FB87E89
:0604DE000B1204F080D2B5
:08017B008B2B8A2C892D8D2E9F
:10018300753280E52E8532F08485F02EE52EC45439
:100193000FC454F0252EF52F2410F530E52E540FFF
:1001A300FFC374109FF531FF7E0074C9252FF9E456
:1001B3003402FA7BFFA82DAC2CAD2B1200D3AF3148
:1001C3007E0074C92530F9E43402FA7BFFC002C013
:1001D30001E52D2410F9E4352CA801FCAD2BD00149
:1001E300D0021200D3E52E2410FFE433FED3EF95A3
:1001F300327480F86E985072C374109531FFE49492
:1002030000FE74D9252FF9E43402FA7BFFE9253186
:10021300F9E43AFAC002C0017C00E52D2531F9EC7E
:10022300352CA801FCAD2BD001D0021200D3C3742E
:10023300109531FFE49400FE74D92530F9E43402BB
:10024300FA7BFFE92531F9E43AFAC002C001E52D52
:100253002410F9E4352CFA7C00E92531F9EC3AA8AD
:1002630001FCAD2BD001D0028052AF317E00C374AC
:10027300109FF582E49EF583E52D2FF9EE352CA82A
:1002830001FCAD2B7BFF7A0279C9AE83AF821200EA
:10029300D3AF317E00C374109FF582E49EF583E5EE
:1002A3002D2410F9E4352CFAE92FF9EE3AA801FCD4
:1002B300AD2B7BFF7A0279D9AE83AF821200D3AB29
:0502C3002BAA2CA92D5F
:0102C8002213
:060463008B2B8A2C892D71
:10046900E4F52EE52E9003D993F4FFE52E9003C908
:1004790093F4FDE52E2410F582E433F583AB2BAA22
:100489002CA92D1200F9FBC003AB2B852E82758395
:10049900001200F9F532D0031203E9052EE52EC347
:0404A900941040BFAC
:0104AD00222C
:0B04F000EF1FAC0670011E4C70F622DE
:1003E900D2B6D2B5E4FEEFC4131313540124FF921D
:1003F900B4EF25E0FFC2B60000D2B60EBE08E7E4AE
:10040900FEEDC4131313540124FF92B4ED25E0FD4E
:10041900C2B60000D2B60EBE08E7E4FEEBC4131361
:1004290013540124FF92B4EB25E0FBC2B60000D2BD
:10043900B60EBE08E7E4FEE532C4131313540124D3
:10044900FF92B4E53225E0F532C2B60000D2B60E0D
:09045900BE08E4C2B50000D2B5F2
:010462002277
:030000000204E413
:0C04E400787FE4F6D8FD7581320204AE8A
:10000300E709F608DFFA8046E709F208DFFA803EDF
:1000130088828C83E709F0A3DFFA8032E309F608CC
:10002300DFFA8078E309F208DFFA807088828C8334
:10003300E309F0A3DFFA806489828A83E0A3F608E8
:10004300DFFA805889828A83E0A3F208DFFA804CC2
:1000530080D280FA80C680D4806980F28033801099
:1000630080A680EA809A80A880DA80E280CA803302
:1000730089828A83ECFAE493A3C8C582C8CCC5837A
:10008300CCF0A3C8C582C8CCC583CCDFE9DEE7804A
:100093000D89828A83E493A3F608DFF9ECFAA9F0C9
:1000A300EDFB2289828A83ECFAE0A3C8C582C8CC1F
:1000B300C583CCF0A3C8C582C8CCC583CCDFEADE38
:1000C300E880DB89828A83E493A3F208DFF980CC9A
:1000D30088F0EF60010E4E60C388F0ED2402B40493
:1000E3000050B9F582EB2402B4040050AF2323453A
:0600F3008223900053730C
:1000F900BB010CE58229F582E5833AF583E02250BC
:1001090006E92582F8E622BBFE06E92582F8E22205
:0D011900E58229F582E5833AF583E493221F
:10012600BC000BBE0029EF8DF084FFADF022E4CCBD
:10013600F875F008EF2FFFEE33FEEC33FCEE9DEC86
:10014600984005FCEE9DFE0FD5F0E9E4CEFD22EDCC
:10015600F8F5F0EE8420D21CFEADF075F008EF2F16
:10016600FFED33FD4007985006D5F0F222C398FD07
:050176000FD5F0EA22A4
:00000001FF
