BL51 BANKED LINKER/LOCATER V6.22                                                        12/24/2023  16:32:42  PAGE 1


BL51 BANKED LINKER/LOCATER V6.22, INVOKED BY:
D:\KEIL\C51\BIN\BL51.EXE STARTUP.obj, main.obj, temp.obj TO a


MEMORY MODEL: SMALL WITH FLOATING POINT ARITHMETIC


INPUT MODULES INCLUDED:
  STARTUP.obj (?C_STARTUP)
  main.obj (MAIN)
  temp.obj (TEMP)
  D:\KEIL\C51\LIB\C51FPS.LIB (?C?FPADD)
  D:\KEIL\C51\LIB\C51FPS.LIB (?C?FPMUL)
  D:\KEIL\C51\LIB\C51FPS.LIB (?C?FPNEG)
  D:\KEIL\C51\LIB\C51FPS.LIB (?C?FCAST)
  D:\KEIL\C51\LIB\C51FPS.LIB (?C?CASTF)
  D:\KEIL\C51\LIB\C51FPS.LIB (?C?FPGETOPN)
  D:\KEIL\C51\LIB\C51S.LIB (?C_INIT)
  D:\KEIL\C51\LIB\C51S.LIB (?C?SIDIV)
  D:\KEIL\C51\LIB\C51S.LIB (?C?LNEG)
  D:\KEIL\C51\LIB\C51S.LIB (?C?UIDIV)


LINK MAP OF MODULE:  a (?C_STARTUP)


            TYPE    BASE      LENGTH    RELOCATION   SEGMENT NAME
            -----------------------------------------------------

            * * * * * * *   D A T A   M E M O R Y   * * * * * * *
            REG     0000H     0008H     ABSOLUTE     "REG BANK 0"
            DATA    0008H     0009H     UNIT         ?DT?MAIN
            DATA    0011H     0009H     UNIT         _DATA_GROUP_
            IDATA   001AH     0001H     UNIT         ?STACK

            * * * * * * *   C O D E   M E M O R Y   * * * * * * *
            CODE    0000H     0003H     ABSOLUTE     
                    0003H     07FDH                  *** GAP ***
            CODE    0800H     0367H     UNIT         ?C?LIB_CODE
            CODE    0B67H     00BBH     UNIT         ?PR?_DATAPROS?MAIN
            CODE    0C22H     008CH     UNIT         ?C_C51STARTUP
            CODE    0CAEH     007FH     UNIT         ?PR?EASYREADTEMP?TEMP
            CODE    0D2DH     004EH     UNIT         ?PR?DIGDISPLAY?MAIN
            CODE    0D7BH     003FH     UNIT         ?PR?_DS18B20WRITEBYTE?TEMP
            CODE    0DBAH     003EH     UNIT         ?PR?DS18B20READBYTE?TEMP
            CODE    0DF8H     0025H     UNIT         ?PR?DS18B20INIT?TEMP
            CODE    0E1DH     001EH     UNIT         ?PR?_DELAY1MS?TEMP
            CODE    0E3BH     0017H     UNIT         ?PR?DS18B20READTEMP?TEMP
            CODE    0E52H     000BH     UNIT         ?PR?_DELAY?MAIN
            CODE    0E5DH     000BH     UNIT         ?PR?MAIN?MAIN
            CODE    0E68H     000BH     UNIT         ?PR?DS18B20CHANGTEMP?TEMP
            CODE    0E73H     000BH     UNIT         ?PR?DS18B20READTEMPCOM?TEMP
            CODE    0E7EH     000AH     UNIT         ?CO?MAIN
            CODE    0E88H     0004H     UNIT         ?C_INITSEG



OVERLAY MAP OF MODULE:   a (?C_STARTUP)
BL51 BANKED LINKER/LOCATER V6.22                                                      12/24/2023  16:32:42  PAGE 2




SEGMENT                               DATA_GROUP 
  +--> CALLED SEGMENT               START    LENGTH
---------------------------------------------------
?C_C51STARTUP                       -----    -----
  +--> ?PR?MAIN?MAIN
  +--> ?C_INITSEG

?PR?MAIN?MAIN                       -----    -----
  +--> ?PR?EASYREADTEMP?TEMP
  +--> ?PR?_DATAPROS?MAIN
  +--> ?PR?DIGDISPLAY?MAIN

?PR?EASYREADTEMP?TEMP               0011H    0006H
  +--> ?PR?DS18B20READTEMP?TEMP

?PR?DS18B20READTEMP?TEMP            0017H    0001H
  +--> ?PR?DS18B20CHANGTEMP?TEMP
  +--> ?PR?DS18B20READTEMPCOM?TEMP
  +--> ?PR?DS18B20READBYTE?TEMP

?PR?DS18B20CHANGTEMP?TEMP           -----    -----
  +--> ?PR?DS18B20INIT?TEMP
  +--> ?PR?_DS18B20WRITEBYTE?TEMP

?PR?DS18B20INIT?TEMP                -----    -----
  +--> ?PR?_DELAY1MS?TEMP

?PR?_DS18B20WRITEBYTE?TEMP          0018H    0002H
  +--> ?PR?_DELAY1MS?TEMP

?PR?DS18B20READTEMPCOM?TEMP         -----    -----
  +--> ?PR?DS18B20INIT?TEMP
  +--> ?PR?_DS18B20WRITEBYTE?TEMP

?PR?_DATAPROS?MAIN                  -----    -----
  +--> ?CO?MAIN

?PR?DIGDISPLAY?MAIN                 -----    -----
  +--> ?PR?_DELAY?MAIN



SYMBOL TABLE OF MODULE:  a (?C_STARTUP)

  VALUE           TYPE          NAME
  ----------------------------------

  -------         MODULE        ?C_STARTUP
  C:0C22H         SEGMENT       ?C_C51STARTUP
  I:001AH         SEGMENT       ?STACK
  C:0000H         PUBLIC        ?C_STARTUP
  D:00E0H         SYMBOL        ACC
  D:00F0H         SYMBOL        B
  D:0083H         SYMBOL        DPH
  D:0082H         SYMBOL        DPL
BL51 BANKED LINKER/LOCATER V6.22                                                      12/24/2023  16:32:42  PAGE 3


  N:0000H         SYMBOL        IBPSTACK
  N:0100H         SYMBOL        IBPSTACKTOP
  N:0080H         SYMBOL        IDATALEN
  C:0C25H         SYMBOL        IDATALOOP
  N:0000H         SYMBOL        PBPSTACK
  N:0100H         SYMBOL        PBPSTACKTOP
  N:0000H         SYMBOL        PDATALEN
  N:0000H         SYMBOL        PDATASTART
  N:0000H         SYMBOL        PPAGE
  N:0000H         SYMBOL        PPAGEENABLE
  D:00A0H         SYMBOL        PPAGE_SFR
  D:0081H         SYMBOL        SP
  C:0C22H         SYMBOL        STARTUP1
  N:0000H         SYMBOL        XBPSTACK
  N:0000H         SYMBOL        XBPSTACKTOP
  N:0000H         SYMBOL        XDATALEN
  N:0000H         SYMBOL        XDATASTART
  C:0000H         LINE#         126
  C:0C22H         LINE#         133
  C:0C24H         LINE#         134
  C:0C25H         LINE#         135
  C:0C26H         LINE#         136
  C:0C28H         LINE#         185
  C:0C2BH         LINE#         196
  -------         ENDMOD        ?C_STARTUP

  -------         MODULE        MAIN
  C:0000H         SYMBOL        _ICE_DUMMY_
  D:0080H         PUBLIC        P0
  D:0090H         PUBLIC        P1
  D:00A0H         PUBLIC        P2
  D:00B0H         PUBLIC        P3
  D:00A8H         PUBLIC        IE
  C:0E52H         PUBLIC        _delay
  D:00B8H         PUBLIC        IP
  C:0E5DH         PUBLIC        main
  D:0098H         PUBLIC        SCON
  D:0088H         PUBLIC        TCON
  D:0008H         PUBLIC        num
  D:0009H         PUBLIC        DisplayData
  B:00A0H.2       PUBLIC        LSA
  B:00A0H.3       PUBLIC        LSB
  B:00A0H.4       PUBLIC        LSC
  C:0B67H         PUBLIC        _datapros
  D:00C8H         PUBLIC        T2CON
  C:0D2DH         PUBLIC        DigDisplay
  C:0E7EH         PUBLIC        smgduan
  D:00D0H         PUBLIC        PSW
  -------         PROC          _DELAY
  D:0006H         SYMBOL        i
  C:0E52H         LINE#         35
  C:0E52H         LINE#         36
  C:0E52H         LINE#         37
  C:0E5CH         LINE#         39
  -------         ENDPROC       _DELAY
  -------         PROC          _DATAPROS
  D:0002H         SYMBOL        temp
BL51 BANKED LINKER/LOCATER V6.22                                                      12/24/2023  16:32:42  PAGE 4


  C:0B67H         LINE#         48
  C:0B6BH         LINE#         49
  C:0B6BH         LINE#         50
  C:0B73H         LINE#         51
  C:0B73H         LINE#         52
  C:0B76H         LINE#         54
  C:0B78H         LINE#         55
  C:0B7BH         LINE#         56
  C:0B7BH         LINE#         58
  C:0B94H         LINE#         59
  C:0BBAH         LINE#         60
  C:0BE2H         LINE#         61
  C:0C08H         LINE#         62
  C:0C21H         LINE#         63
  -------         ENDPROC       _DATAPROS
  -------         PROC          DIGDISPLAY
  -------         DO            
  D:0005H         SYMBOL        i
  -------         ENDDO         
  C:0D2DH         LINE#         71
  C:0D2DH         LINE#         72
  C:0D2DH         LINE#         74
  C:0D2FH         LINE#         75
  C:0D43H         LINE#         76
  C:0D43H         LINE#         77
  C:0D43H         LINE#         78
  C:0D45H         LINE#         79
  C:0D45H         LINE#         80
  C:0D45H         LINE#         81
  C:0D47H         LINE#         82
  C:0D47H         LINE#         83
  C:0D49H         LINE#         84
  C:0D4BH         LINE#         85
  C:0D4DH         LINE#         86
  C:0D4FH         LINE#         87
  C:0D4FH         LINE#         88
  C:0D51H         LINE#         89
  C:0D51H         LINE#         90
  C:0D51H         LINE#         91
  C:0D53H         LINE#         92
  C:0D53H         LINE#         93
  C:0D55H         LINE#         94
  C:0D57H         LINE#         95
  C:0D59H         LINE#         96
  C:0D5BH         LINE#         97
  C:0D5BH         LINE#         98
  C:0D5DH         LINE#         99
  C:0D5DH         LINE#         100
  C:0D5DH         LINE#         101
  C:0D5FH         LINE#         102
  C:0D5FH         LINE#         103
  C:0D61H         LINE#         104
  C:0D63H         LINE#         105
  C:0D65H         LINE#         106
  C:0D65H         LINE#         107
  C:0D65H         LINE#         108
  C:0D6CH         LINE#         109
BL51 BANKED LINKER/LOCATER V6.22                                                      12/24/2023  16:32:42  PAGE 5


  C:0D73H         LINE#         110
  C:0D76H         LINE#         111
  C:0D7AH         LINE#         112
  -------         ENDPROC       DIGDISPLAY
  -------         PROC          MAIN
  C:0E5DH         LINE#         114
  C:0E5DH         LINE#         115
  C:0E5DH         LINE#         117
  C:0E5DH         LINE#         118
  C:0E63H         LINE#         119
  C:0E66H         LINE#         120
  -------         ENDPROC       MAIN
  -------         ENDMOD        MAIN

  -------         MODULE        TEMP
  C:0000H         SYMBOL        _ICE_DUMMY_
  C:0E3BH         PUBLIC        Ds18b20ReadTemp
  D:0090H         PUBLIC        P1
  D:00B0H         PUBLIC        P3
  C:0E1DH         PUBLIC        _Delay1ms
  C:0D84H         PUBLIC        _Ds18b20WriteByte
  D:00A8H         PUBLIC        IE
  D:00B8H         PUBLIC        IP
  C:0DF8H         PUBLIC        ds18b20Init
  C:0E73H         PUBLIC        Ds18b20ReadTempCom
  D:0098H         PUBLIC        SCON
  D:0088H         PUBLIC        TCON
  C:0CAEH         PUBLIC        easyReadTemp
  B:00B0H.7       PUBLIC        DSPORT
  C:0E68H         PUBLIC        Ds18b20ChangTemp
  D:00C8H         PUBLIC        T2CON
  D:00D0H         PUBLIC        PSW
  C:0DBAH         PUBLIC        Ds18b20ReadByte
  -------         PROC          _DELAY1MS
  D:0006H         SYMBOL        y
  -------         DO            
  D:0004H         SYMBOL        x
  -------         ENDDO         
  C:0E1DH         LINE#         10
  C:0E1DH         LINE#         11
  C:0E1DH         LINE#         13
  C:0E26H         LINE#         14
  C:0E33H         LINE#         16
  C:0E3AH         LINE#         17
  -------         ENDPROC       _DELAY1MS
  -------         PROC          DS18B20INIT
  -------         DO            
  D:0003H         SYMBOL        i
  -------         ENDDO         
  C:0DF8H         LINE#         25
  C:0DF8H         LINE#         26
  C:0DF8H         LINE#         28
  C:0DFAH         LINE#         29
  C:0DFCH         LINE#         30
  C:0E02H         LINE#         33
  C:0E04H         LINE#         34
  C:0E06H         LINE#         35
BL51 BANKED LINKER/LOCATER V6.22                                                      12/24/2023  16:32:42  PAGE 6


  C:0E09H         LINE#         36
  C:0E09H         LINE#         37
  C:0E10H         LINE#         38
  C:0E11H         LINE#         39
  C:0E17H         LINE#         40
  C:0E17H         LINE#         41
  C:0E1AH         LINE#         42
  C:0E1AH         LINE#         43
  C:0E1AH         LINE#         44
  C:0E1CH         LINE#         45
  -------         ENDPROC       DS18B20INIT
  -------         PROC          DS18B20READBYTE
  -------         DO            
  D:0001H         SYMBOL        byte
  D:0003H         SYMBOL        bi
  D:0006H         SYMBOL        i
  D:0004H         SYMBOL        j
  -------         ENDDO         
  C:0DBAH         LINE#         53
  C:0DBAH         LINE#         54
  C:0DBAH         LINE#         57
  C:0DBEH         LINE#         58
  C:0DC0H         LINE#         59
  C:0DC4H         LINE#         60
  C:0DC6H         LINE#         61
  C:0DCAH         LINE#         62
  C:0DCEH         LINE#         63
  C:0DD2H         LINE#         65
  C:0DDEH         LINE#         66
  C:0DE2H         LINE#         67
  C:0DECH         LINE#         69
  C:0DF5H         LINE#         70
  C:0DF7H         LINE#         71
  -------         ENDPROC       DS18B20READBYTE
  -------         PROC          L?0044
  -------         ENDPROC       L?0044
  -------         PROC          _DS18B20WRITEBYTE
  D:0007H         SYMBOL        dat
  -------         DO            
  D:0018H         SYMBOL        i
  D:0002H         SYMBOL        j
  -------         ENDDO         
  C:0D84H         LINE#         78
  C:0D84H         LINE#         79
  C:0D84H         LINE#         81
  C:0D87H         LINE#         82
  C:0D89H         LINE#         83
  C:0D91H         LINE#         84
  C:0D95H         LINE#         85
  C:0D9BH         LINE#         86
  C:0DA8H         LINE#         88
  C:0DAAH         LINE#         89
  C:0DAEH         LINE#         90
  C:0DB9H         LINE#         91
  -------         ENDPROC       _DS18B20WRITEBYTE
  -------         PROC          DS18B20CHANGTEMP
  C:0E68H         LINE#         99
BL51 BANKED LINKER/LOCATER V6.22                                                      12/24/2023  16:32:42  PAGE 7


  C:0E68H         LINE#         100
  C:0E68H         LINE#         101
  C:0E6BH         LINE#         102
  C:0E6BH         LINE#         103
  C:0E6EH         LINE#         104
  -------         ENDPROC       DS18B20CHANGTEMP
  -------         PROC          DS18B20READTEMPCOM
  C:0E73H         LINE#         115
  C:0E73H         LINE#         116
  C:0E73H         LINE#         117
  C:0E76H         LINE#         118
  C:0E76H         LINE#         119
  C:0E79H         LINE#         120
  -------         ENDPROC       DS18B20READTEMPCOM
  -------         PROC          DS18B20READTEMP
  -------         DO            
  D:0006H         SYMBOL        temp
  D:0007H         SYMBOL        tmh
  D:0017H         SYMBOL        tml
  -------         ENDDO         
  C:0E3BH         LINE#         130
  C:0E3BH         LINE#         131
  C:0E3BH         LINE#         132
  C:0E3EH         LINE#         134
  C:0E41H         LINE#         135
  C:0E44H         LINE#         136
  C:0E49H         LINE#         137
  C:0E4CH         LINE#         138
  C:0E4CH         LINE#         139
  C:0E4EH         LINE#         140
  C:0E51H         LINE#         141
  C:0E51H         LINE#         142
  -------         ENDPROC       DS18B20READTEMP
  -------         PROC          EASYREADTEMP
  -------         DO            
  D:0011H         SYMBOL        tp
  D:0015H         SYMBOL        temp
  -------         ENDDO         
  C:0CAEH         LINE#         149
  C:0CAEH         LINE#         150
  C:0CAEH         LINE#         152
  C:0CB5H         LINE#         153
  C:0CBEH         LINE#         154
  C:0CBEH         LINE#         156
  C:0CC6H         LINE#         157
  C:0CCCH         LINE#         158
  C:0CECH         LINE#         162
  C:0CEEH         LINE#         165
  C:0D13H         LINE#         169
  C:0D13H         LINE#         170
  C:0D2CH         LINE#         171
  C:0D2CH         LINE#         172
  -------         ENDPROC       EASYREADTEMP
  -------         ENDMOD        TEMP

  -------         MODULE        ?C?FPADD
  C:0807H         PUBLIC        ?C?FPADD
BL51 BANKED LINKER/LOCATER V6.22                                                      12/24/2023  16:32:42  PAGE 8


  C:0803H         PUBLIC        ?C?FPSUB
  -------         ENDMOD        ?C?FPADD

  -------         MODULE        ?C?FPMUL
  C:08F8H         PUBLIC        ?C?FPMUL
  -------         ENDMOD        ?C?FPMUL

  -------         MODULE        ?C?FPNEG
  C:09FEH         PUBLIC        ?C?FPNEG
  -------         ENDMOD        ?C?FPNEG

  -------         MODULE        ?C?FCAST
  C:0A19H         PUBLIC        ?C?FCASTC
  C:0A14H         PUBLIC        ?C?FCASTI
  C:0A0FH         PUBLIC        ?C?FCASTL
  -------         ENDMOD        ?C?FCAST

  -------         MODULE        ?C?CASTF
  C:0A4DH         PUBLIC        ?C?CASTF
  -------         ENDMOD        ?C?CASTF

  -------         MODULE        ?C?SIDIV
  C:0ACEH         PUBLIC        ?C?SIDIV
  -------         ENDMOD        ?C?SIDIV

  -------         MODULE        ?C?LNEG
  C:0B04H         PUBLIC        ?C?LNEG
  -------         ENDMOD        ?C?LNEG

  -------         MODULE        ?C?UIDIV
  C:0B12H         PUBLIC        ?C?UIDIV
  -------         ENDMOD        ?C?UIDIV

******************************************************************************
* RESTRICTED VERSION WITH 0800H BYTE CODE SIZE LIMIT; USED: 02A7H BYTE (33%) *
******************************************************************************

Program Size: data=27.0 xdata=0 code=1679
LINK/LOCATE RUN COMPLETE.  0 WARNING(S),  0 ERROR(S)
