:100DCA00D3EF9400EE940040147D6E7C00ED1D700C
:0D0DDA00011CED4C70F7EF1F70E61E80E36A
:010DE70022E9
:100D8200C2B77B46AF031BEF70FAD2B7E4FB30B7B2
:100D9200117F017E00120DCA0BEBD3940540EF7F49
:040DA20000227F01AB
:010DA600222A
:0C0D5B00120D827F017E00120DCA7FCCB9
:100D6700E4FDC2B7EF1392B77E06AC061EEC70FA2D
:0A0D7700D2B7EFC313FF0DBD08E86B
:010D8100224F
:100DA7007D08C2B7D2B7A2B7E433C4333333548014
:100DB700FCEEC3134CFE7F04AC071FEC70FADDE2B8
:020DC700AF0675
:010DC9002207
:080E2400120D5B7F44020D6713
:080E2C00120D5B7FBE020D6791
:100DE800E4FFFE120E24120E2C120DA7AB07120DF3
:050DF800A7EFFEEBFF78
:010DFD0022D3
:100DFE003F065B4F666D7D077F6F777C395E79713D
:0A0E190008080000000000000000BF
:0B0E0E00EF1FAC0670011E4C70F622B6
:100CE600E4FD7B08EDC39B506BED2408C39BB40861
:100CF60000504D900D00F8282873020D18020D1CA7
:100D0600020D24020D28020D30020D34020D3C02A4
:100D16000D40C2A28002D2A2C2A3C2A48022C2A255
:100D26008002D2A2D2A3C2A48016C2A28002D2A2FC
:100D3600C2A3D2A4800AC2A28002D2A2D2A3D2A403
:100D460074082DF8E6F5807F327E00120E0EE4F56B
:040D5600800D8090FC
:010D5A002276
:100B5600120DE88E148F15C3E5146480948050132B
:100B6600750840E5151515700215146315FF631415
:100B7600FF8003E4F508AC14AD15EC120A038F13DD
:100B86008E128D118C10E4FFFE7DC87C40AB13AA3B
:100B960012A911A8101208F8E4FBFAF9783F120816
:100BA60007120A3C8E148F15AE14AF157C277D10E4
:100BB600120ABD74FE2FF582740D3EF583E493F59B
:100BC60009AE14AF157C277D10120ABD7E037FE89F
:100BD600CFCDCFCECCCE120ABD74FE2FF582740DCA
:100BE6003EF583E493F50AAE14AF157C037DE81257
:100BF6000ABD7E007F64CFCDCFCECCCE120ABD74A7
:100C0600FE2FF582740D3EF583E4934480F50BAE1A
:100C160014AF157C007D64120ABD7E007F0ACFCD1D
:100C2600CFCECCCE120ABD74FE2FF582740D3EF5E2
:100C360083E493F50CAE14AF157C007D0A120ABD51
:100C460074FE2DF582740D3CF583E493F50D120CBC
:010C5600E6B7
:030C5700020B5637
:10080000020AA8E86480F8E933E83360110460F074
:10081000ED33EC337009E8FCE9FDEAFEEBFF22045E
:1008200060DED3EB9FEA9EE99DE8C2E78CF0C2F759
:1008300095F0400CE8CCF8E9CDF9EACEFAEBCFFB25
:10084000120A7385D0F05804700320D5B3E8047001
:10085000075002B2D5020AB292D5EC0460F7E4CC9C
:10086000C0E0C398F8603B94186008400DD0E0FBEE
:10087000020A8AE4FBFAC9FC8028E830E406E4C9ED
:10088000FBE4CAFCE830E305E4C9CACBFCE8540742
:100890006010F8C3E913F9EA13FAEB13FBEC13FC4D
:1008A000D8F130F52FC3E49CFCEF9BFFEE9AFEEDF0
:1008B00099FDD0E0FBEF4E4D4C701222DB03020A93
:1008C000AFEC2CFCEF33FFEE33FEED33FDED30E704
:1008D000EB020A8AEF2BFFEE3AFEED39FDD0E0FB8A
:1008E00050130BBB0003020AB2ED13FDEE13FEEF33
:0808F00013FFEC13FC020A8A5D
:1008F800EC4D6011E8497017ED33EC3304600DE4FA
:10090800FCFFFEFD22E933E8330470F8020AA8125E
:100918000A7358046009E4CC24815006285009025F
:100928000AB2284003020AAFC0E0EB4A7044B9801B
:1009380006D0E0FB020A9EEF4E701CBD8008EBFF5C
:10094800EAFEE9FD80EBE98DF0A4FEE5F00209E19D
:10095800E9CDF9EAFEEBFFEF89F0A4FCE5F0CE89DA
:10096800F0A42EFFE435F0CD89F0A42DFEE435F097
:100978008067EF4E7005BD80D780C3EF8BF0A4ACC5
:10098800F0EE8BF0A42CFCE435F0F8EF8AF0A42C00
:10099800E5F038FCE433CB8DF0A42CFCE5F03BF813
:1009A800EE8AF0A42CFCE5F038F8E433CF89F0A403
:1009B8002CFCE5F038CF3400CE89F0A42FFFE5F009
:1009C8003EFEE433C98DF0A42EFEE5F039CD8AF061
:1009D800A42FFFE5F03EFEE43DFD33D0E0FB5007D9
:1009E8000BBB000F020AB2EC2CFCEF33FFEE33FE18
:0609F800ED33FD020A8A46
:1009FE0075F020800E75F010800575F0087D007E74
:100A0E00007F003392D530D503120AF3EC33401039
:100A1E00EF33FFEE33FEED33FDEC33FCD5F0ED227C
:0E0A2E00E5F0247EA2D513CC92E7CDCEFF22B8
:100A3C00EDD2E7CD33EC3392D524814006E4FFFEB2
:100A4C00FDFC22FCE4CFCECDCC24E0501174FF8011
:100A5C00EDC3CC13CCCD13CDCE13CECF13CF0470AE
:070A6C00F030D5DE020AF3B1
:100A7300E9D2E7C933E833F892D5EDD2E7CD33ECC9
:070A830033FC5002B2D52242
:100A8A00EC30E7100FBF000C0EBE00080DBD0004CD
:100A9A000BEB6014A2D5EB13FCED92E7FD2274FF79
:100AAA00FCFDFEFF22E480F8A2D574FF13FC7D80D2
:030ABA00E480EFE6
:03000000020C5A95
:0C0C5A00787FE4F6D8FD758115020CA12E
:100ABD00C2D5EC30E709B2D5E4C39DFDE49CFCEE54
:100ACD0030E715B2D5E4C39FFFE49EFE120B01C3C0
:100ADD00E49DFDE49CFC8003120B0130D507C3E4BB
:060AED009FFFE49EFE22C3
:0E0AF300C3E49FFFE49EFEE49DFDE49CFC2214
:100C6600020B56E493A3F8E493A34003F68001F243
:100C760008DFF48029E493A3F85407240CC8C3338F
:100C8600C4540F4420C8834004F456800146F6DF5E
:100C9600E4800B0102040810204080900E19E47EC7
:100CA600019360BCA3FF543F30E509541FFEE49353
:100CB600A360010ECF54C025E060A840B8E493A31A
:100CC600FAE493A3F8E493A3C8C582C8CAC583CA45
:100CD600F0A3C8C582C8CAC583CADFE9DEE780BEFD
:010E230000CE
:100B0100BC000BBE0029EF8DF084FFADF022E4CCD8
:100B1100F875F008EF2FFFEE33FEEC33FCEE9DECA1
:100B2100984005FCEE9DFE0FD5F0E9E4CEFD22EDE7
:100B3100F8F5F0EE8420D21CFEADF075F008EF2F31
:100B4100FFED33FD4007985006D5F0F222C398FD22
:050B51000FD5F0EA22BF
:00000001FF
