BL51 BANKED LINKER/LOCATER V6.22                                                        12/14/2023  22:29:08  PAGE 1


BL51 BANKED LINKER/LOCATER V6.22, INVOKED BY:
D:\KEIL\C51\BIN\BL51.EXE temp.obj, main.obj TO temp


MEMORY MODEL: SMALL WITH FLOATING POINT ARITHMETIC


INPUT MODULES INCLUDED:
  temp.obj (TEMP)
  main.obj (MAIN)
  D:\KEIL\C51\LIB\C51FPS.LIB (?C?FPADD)
  D:\KEIL\C51\LIB\C51FPS.LIB (?C?FPMUL)
  D:\KEIL\C51\LIB\C51FPS.LIB (?C?FCAST)
  D:\KEIL\C51\LIB\C51FPS.LIB (?C?CASTF)
  D:\KEIL\C51\LIB\C51FPS.LIB (?C?FPGETOPN)
  D:\KEIL\C51\LIB\C51S.LIB (?C_STARTUP)
  D:\KEIL\C51\LIB\C51S.LIB (?C?SIDIV)
  D:\KEIL\C51\LIB\C51S.LIB (?C?LNEG)
  D:\KEIL\C51\LIB\C51S.LIB (?C_INIT)
  D:\KEIL\C51\LIB\C51S.LIB (?C?UIDIV)


LINK MAP OF MODULE:  temp (TEMP)


            TYPE    BASE      LENGTH    RELOCATION   SEGMENT NAME
            -----------------------------------------------------

            * * * * * * *   D A T A   M E M O R Y   * * * * * * *
            REG     0000H     0008H     ABSOLUTE     "REG BANK 0"
            DATA    0008H     0008H     UNIT         ?DT?MAIN
            DATA    0010H     0006H     UNIT         _DATA_GROUP_
            IDATA   0016H     0001H     UNIT         ?STACK

            * * * * * * *   C O D E   M E M O R Y   * * * * * * *
            CODE    0000H     0003H     ABSOLUTE     
                    0003H     07FDH                  *** GAP ***
            CODE    0800H     0356H     UNIT         ?C?LIB_CODE
            CODE    0B56H     0104H     UNIT         ?PR?MAIN?MAIN
            CODE    0C5AH     008CH     UNIT         ?C_C51STARTUP
            CODE    0CE6H     0075H     UNIT         ?PR?DONGTAISMG?MAIN
            CODE    0D5BH     0027H     UNIT         ?PR?_DS18B20WRITEBYTE?TEMP
            CODE    0D82H     0025H     UNIT         ?PR?DS18B20INIT?TEMP
            CODE    0DA7H     0023H     UNIT         ?PR?DS18B20READBYTE?TEMP
            CODE    0DCAH     001EH     UNIT         ?PR?_DELAY1MS?TEMP
            CODE    0DE8H     0016H     UNIT         ?PR?DS18B20READTEMP?TEMP
            CODE    0DFEH     0010H     UNIT         ?CO?MAIN
            CODE    0E0EH     000BH     UNIT         ?PR?_DELAY?MAIN
            CODE    0E19H     000BH     UNIT         ?C_INITSEG
            CODE    0E24H     0008H     UNIT         ?PR?DS18B20CHANGETEMP?TEMP
            CODE    0E2CH     0008H     UNIT         ?PR?DS18B20READTEMPCOM?TEMP



OVERLAY MAP OF MODULE:   temp (TEMP)


SEGMENT                               DATA_GROUP 
BL51 BANKED LINKER/LOCATER V6.22                                                      12/14/2023  22:29:08  PAGE 2


  +--> CALLED SEGMENT               START    LENGTH
---------------------------------------------------
?C_C51STARTUP                       -----    -----
  +--> ?PR?MAIN?MAIN
  +--> ?C_INITSEG

?PR?MAIN?MAIN                       0010H    0006H
  +--> ?PR?DS18B20READTEMP?TEMP
  +--> ?CO?MAIN
  +--> ?PR?DONGTAISMG?MAIN

?PR?DS18B20READTEMP?TEMP            -----    -----
  +--> ?PR?DS18B20CHANGETEMP?TEMP
  +--> ?PR?DS18B20READTEMPCOM?TEMP
  +--> ?PR?DS18B20READBYTE?TEMP

?PR?DS18B20CHANGETEMP?TEMP          -----    -----
  +--> ?PR?_DS18B20WRITEBYTE?TEMP

?PR?_DS18B20WRITEBYTE?TEMP          -----    -----
  +--> ?PR?DS18B20INIT?TEMP
  +--> ?PR?_DELAY1MS?TEMP

?PR?DS18B20INIT?TEMP                -----    -----
  +--> ?PR?_DELAY1MS?TEMP

?PR?DS18B20READTEMPCOM?TEMP         -----    -----
  +--> ?PR?_DS18B20WRITEBYTE?TEMP

?PR?DONGTAISMG?MAIN                 -----    -----
  +--> ?PR?_DELAY?MAIN



SYMBOL TABLE OF MODULE:  temp (TEMP)

  VALUE           TYPE          NAME
  ----------------------------------

  -------         MODULE        TEMP
  C:0000H         SYMBOL        _ICE_DUMMY_
  C:0DE8H         PUBLIC        Ds18b20ReadTemp
  D:00B0H         PUBLIC        P3
  C:0DCAH         PUBLIC        _Delay1ms
  C:0D67H         PUBLIC        _Ds18b20WriteByte
  C:0E2CH         PUBLIC        Ds18b20ReadTempCom
  C:0E24H         PUBLIC        Ds18b20ChangeTemp
  B:00B0H.7       PUBLIC        DSPORT
  C:0DA7H         PUBLIC        Ds18b20ReadByte
  C:0D82H         PUBLIC        Ds18b20Init
  -------         PROC          _DELAY1MS
  D:0006H         SYMBOL        y
  -------         DO            
  D:0004H         SYMBOL        x
  -------         ENDDO         
  C:0DCAH         LINE#         3
  C:0DCAH         LINE#         5
BL51 BANKED LINKER/LOCATER V6.22                                                      12/14/2023  22:29:08  PAGE 3


  C:0DD3H         LINE#         6
  C:0DE0H         LINE#         7
  C:0DE7H         LINE#         8
  -------         ENDPROC       _DELAY1MS
  -------         PROC          DS18B20INIT
  -------         DO            
  D:0003H         SYMBOL        i
  -------         ENDDO         
  C:0D82H         LINE#         12
  C:0D82H         LINE#         13
  C:0D82H         LINE#         14
  C:0D84H         LINE#         15
  C:0D86H         LINE#         16
  C:0D8CH         LINE#         17
  C:0D8EH         LINE#         18
  C:0D90H         LINE#         19
  C:0D93H         LINE#         20
  C:0D9AH         LINE#         21
  C:0D9BH         LINE#         22
  C:0DA1H         LINE#         23
  C:0DA4H         LINE#         24
  C:0DA4H         LINE#         25
  C:0DA4H         LINE#         26
  C:0DA6H         LINE#         27
  -------         ENDPROC       DS18B20INIT
  -------         PROC          L?0031
  -------         ENDPROC       L?0031
  -------         PROC          _DS18B20WRITEBYTE
  D:0007H         SYMBOL        dat
  -------         DO            
  D:0006H         SYMBOL        i
  D:0005H         SYMBOL        j
  -------         ENDDO         
  C:0D67H         LINE#         29
  C:0D67H         LINE#         31
  C:0D69H         LINE#         32
  C:0D6BH         LINE#         33
  C:0D6BH         LINE#         34
  C:0D6FH         LINE#         35
  C:0D71H         LINE#         36
  C:0D77H         LINE#         37
  C:0D79H         LINE#         38
  C:0D7DH         LINE#         39
  C:0D81H         LINE#         40
  -------         ENDPROC       _DS18B20WRITEBYTE
  -------         PROC          DS18B20READBYTE
  -------         DO            
  D:0006H         SYMBOL        dat
  D:0004H         SYMBOL        bi
  D:0007H         SYMBOL        i
  D:0005H         SYMBOL        j
  -------         ENDDO         
  C:0DA7H         LINE#         42
  C:0DA7H         LINE#         44
  C:0DA9H         LINE#         45
  C:0DABH         LINE#         46
  C:0DABH         LINE#         47
BL51 BANKED LINKER/LOCATER V6.22                                                      12/14/2023  22:29:08  PAGE 4


  C:0DADH         LINE#         48
  C:0DADH         LINE#         49
  C:0DADH         LINE#         50
  C:0DB1H         LINE#         51
  C:0DBDH         LINE#         52
  C:0DBFH         LINE#         53
  C:0DC5H         LINE#         54
  C:0DC7H         LINE#         56
  C:0DC9H         LINE#         57
  -------         ENDPROC       DS18B20READBYTE
  -------         PROC          DS18B20CHANGETEMP
  C:0E24H         LINE#         62
  C:0E24H         LINE#         63
  C:0E24H         LINE#         64
  C:0E24H         LINE#         65
  C:0E27H         LINE#         66
  -------         ENDPROC       DS18B20CHANGETEMP
  -------         PROC          DS18B20READTEMPCOM
  C:0E2CH         LINE#         72
  C:0E2CH         LINE#         73
  C:0E2CH         LINE#         74
  C:0E2CH         LINE#         75
  C:0E2FH         LINE#         76
  -------         ENDPROC       DS18B20READTEMPCOM
  -------         PROC          DS18B20READTEMP
  -------         DO            
  D:0006H         SYMBOL        temp
  D:0007H         SYMBOL        tmh
  D:0003H         SYMBOL        tml
  -------         ENDDO         
  C:0DE8H         LINE#         79
  C:0DE8H         LINE#         80
  C:0DEBH         LINE#         82
  C:0DEEH         LINE#         83
  C:0DF1H         LINE#         84
  C:0DF6H         LINE#         85
  C:0DF9H         LINE#         87
  C:0DF9H         LINE#         88
  C:0DFBH         LINE#         89
  C:0DFDH         LINE#         90
  C:0DFDH         LINE#         91
  -------         ENDPROC       DS18B20READTEMP
  -------         ENDMOD        TEMP

  -------         MODULE        MAIN
  C:0000H         SYMBOL        _ICE_DUMMY_
  D:0080H         PUBLIC        P0
  D:00A0H         PUBLIC        P2
  D:00B0H         PUBLIC        P3
  C:0E0EH         PUBLIC        _delay
  C:0B56H         PUBLIC        main
  C:0DFEH         PUBLIC        smg
  D:0008H         PUBLIC        shu
  B:00A0H.2       PUBLIC        LSA
  B:00A0H.3       PUBLIC        LSB
  B:00A0H.4       PUBLIC        LSC
  C:0CE6H         PUBLIC        dongTaiSmg
BL51 BANKED LINKER/LOCATER V6.22                                                      12/14/2023  22:29:08  PAGE 5


  -------         PROC          _DELAY
  D:0006H         SYMBOL        i
  C:0E0EH         LINE#         13
  C:0E0EH         LINE#         14
  C:0E18H         LINE#         15
  -------         ENDPROC       _DELAY
  -------         PROC          DONGTAISMG
  -------         DO            
  D:0005H         SYMBOL        i
  D:0003H         SYMBOL        len
  -------         ENDDO         
  C:0CE6H         LINE#         16
  C:0CE6H         LINE#         17
  C:0CEAH         LINE#         18
  C:0CEFH         LINE#         19
  C:0D18H         LINE#         20
  C:0D18H         LINE#         21
  C:0D1AH         LINE#         22
  C:0D1CH         LINE#         23
  C:0D1CH         LINE#         24
  C:0D22H         LINE#         25
  C:0D24H         LINE#         26
  C:0D24H         LINE#         27
  C:0D26H         LINE#         28
  C:0D28H         LINE#         29
  C:0D28H         LINE#         30
  C:0D2EH         LINE#         31
  C:0D30H         LINE#         32
  C:0D30H         LINE#         33
  C:0D32H         LINE#         34
  C:0D34H         LINE#         35
  C:0D34H         LINE#         36
  C:0D3AH         LINE#         37
  C:0D3CH         LINE#         38
  C:0D3CH         LINE#         39
  C:0D3EH         LINE#         40
  C:0D40H         LINE#         41
  C:0D40H         LINE#         42
  C:0D46H         LINE#         43
  C:0D46H         LINE#         44
  C:0D46H         LINE#         45
  C:0D4DH         LINE#         46
  C:0D54H         LINE#         47
  C:0D57H         LINE#         48
  C:0D5AH         LINE#         49
  -------         ENDPROC       DONGTAISMG
  -------         PROC          MAIN
  -------         DO            
  D:0010H         SYMBOL        tp
  -------         DO            
  D:0014H         SYMBOL        temp
  -------         ENDDO         
  -------         ENDDO         
  C:0B56H         LINE#         51
  C:0B56H         LINE#         53
  C:0B56H         LINE#         54
  C:0B5DH         LINE#         55
BL51 BANKED LINKER/LOCATER V6.22                                                      12/14/2023  22:29:08  PAGE 6


  C:0B66H         LINE#         56
  C:0B69H         LINE#         57
  C:0B71H         LINE#         58
  C:0B77H         LINE#         59
  C:0B77H         LINE#         60
  C:0B77H         LINE#         61
  C:0B79H         LINE#         62
  C:0B7CH         LINE#         63
  C:0B8CH         LINE#         64
  C:0BAEH         LINE#         65
  C:0BAEH         LINE#         66
  C:0BC7H         LINE#         67
  C:0BEDH         LINE#         68
  C:0C15H         LINE#         69
  C:0C3BH         LINE#         70
  C:0C54H         LINE#         71
  C:0C57H         LINE#         72
  -------         ENDPROC       MAIN
  -------         ENDMOD        MAIN

  -------         MODULE        ?C?FPADD
  C:0807H         PUBLIC        ?C?FPADD
  C:0803H         PUBLIC        ?C?FPSUB
  -------         ENDMOD        ?C?FPADD

  -------         MODULE        ?C?FPMUL
  C:08F8H         PUBLIC        ?C?FPMUL
  -------         ENDMOD        ?C?FPMUL

  -------         MODULE        ?C?FCAST
  C:0A08H         PUBLIC        ?C?FCASTC
  C:0A03H         PUBLIC        ?C?FCASTI
  C:09FEH         PUBLIC        ?C?FCASTL
  -------         ENDMOD        ?C?FCAST

  -------         MODULE        ?C?CASTF
  C:0A3CH         PUBLIC        ?C?CASTF
  -------         ENDMOD        ?C?CASTF

  -------         MODULE        ?C?SIDIV
  C:0ABDH         PUBLIC        ?C?SIDIV
  -------         ENDMOD        ?C?SIDIV

  -------         MODULE        ?C?LNEG
  C:0AF3H         PUBLIC        ?C?LNEG
  -------         ENDMOD        ?C?LNEG

  -------         MODULE        ?C?UIDIV
  C:0B01H         PUBLIC        ?C?UIDIV
  -------         ENDMOD        ?C?UIDIV

******************************************************************************
* RESTRICTED VERSION WITH 0800H BYTE CODE SIZE LIMIT; USED: 0251H BYTE (28%) *
******************************************************************************

Program Size: data=23.0 xdata=0 code=1591
LINK/LOCATE RUN COMPLETE.  0 WARNING(S),  0 ERROR(S)
