BL51 BANKED LINKER/LOCATER V6.22                                                        03/13/2022  10:47:27  PAGE 1


BL51 BANKED LINKER/LOCATER V6.22, INVOKED BY:
D:\KEIL\C51\BIN\BL51.EXE main.obj TO interrupt


MEMORY MODEL: SMALL


INPUT MODULES INCLUDED:
  main.obj (MAIN)
  D:\KEIL\C51\LIB\C51S.LIB (?C_STARTUP)
  D:\KEIL\C51\LIB\C51S.LIB (?C?COPY)
  D:\KEIL\C51\LIB\C51S.LIB (?C?UIDIV)
  D:\KEIL\C51\LIB\C51S.LIB (?C?SLDIV)
  D:\KEIL\C51\LIB\C51S.LIB (?C_INIT)
  D:\KEIL\C51\LIB\C51S.LIB (?C?ULDIV)


LINK MAP OF MODULE:  interrupt (MAIN)


            TYPE    BASE      LENGTH    RELOCATION   SEGMENT NAME
            -----------------------------------------------------

            * * * * * * *   D A T A   M E M O R Y   * * * * * * *
            REG     0000H     0008H     ABSOLUTE     "REG BANK 0"
            DATA    0008H     000BH     UNIT         _DATA_GROUP_
            DATA    0013H     0005H     UNIT         ?DT?MAIN
            IDATA   0018H     0001H     UNIT         ?STACK

            * * * * * * *   C O D E   M E M O R Y   * * * * * * *
            CODE    0000H     0003H     ABSOLUTE     
            CODE    0003H     0003H     ABSOLUTE     
                    0006H     0005H                  *** GAP ***
            CODE    000BH     0003H     ABSOLUTE     
                    000EH     07F2H                  *** GAP ***
            CODE    0800H     0219H     UNIT         ?C?LIB_CODE
            CODE    0A19H     0149H     UNIT         ?PR?_DONGTAISMG?MAIN
            CODE    0B62H     008CH     UNIT         ?C_C51STARTUP
            CODE    0BEEH     004DH     UNIT         ?PR?TIME0INTERRUPT?MAIN
            CODE    0C3BH     0044H     UNIT         ?C?LDIV
            CODE    0C7FH     0024H     UNIT         ?PR?INT0?MAIN
            CODE    0CA3H     0018H     UNIT         ?CO?MAIN
            CODE    0CBBH     0013H     UNIT         ?PR?MAIN?MAIN
            CODE    0CCEH     0010H     UNIT         ?PR?TIMER0INIT?MAIN
            CODE    0CDEH     000EH     UNIT         ?PR?_SHOWYELLOW?MAIN
            CODE    0CECH     000EH     UNIT         ?PR?_HOR?MAIN
            CODE    0CFAH     000EH     UNIT         ?C_INITSEG
            CODE    0D08H     000BH     UNIT         ?PR?_DELAY?MAIN
            CODE    0D13H     0007H     UNIT         ?PR?INT0INIT?MAIN



OVERLAY MAP OF MODULE:   interrupt (MAIN)


SEGMENT                           DATA_GROUP 
  +--> CALLED SEGMENT           START    LENGTH
-----------------------------------------------
BL51 BANKED LINKER/LOCATER V6.22                                                      03/13/2022  10:47:27  PAGE 2


?PR?INT0?MAIN                   -----    -----
  +--> ?PR?_DELAY?MAIN

*** NEW ROOT ***************************************************

?C_C51STARTUP                   -----    -----
  +--> ?PR?MAIN?MAIN
  +--> ?C_INITSEG

?PR?MAIN?MAIN                   -----    -----
  +--> ?PR?TIMER0INIT?MAIN
  +--> ?PR?_DONGTAISMG?MAIN
  +--> ?PR?_HOR?MAIN

?PR?_DONGTAISMG?MAIN            0008H    000BH
  +--> ?CO?MAIN
  +--> ?PR?_DELAY?MAIN

?PR?_HOR?MAIN                   -----    -----
  +--> ?PR?_SHOWYELLOW?MAIN



SYMBOL TABLE OF MODULE:  interrupt (MAIN)

  VALUE           TYPE          NAME
  ----------------------------------

  -------         MODULE        MAIN
  C:0000H         SYMBOL        _ICE_DUMMY_
  D:0080H         PUBLIC        P0
  D:0090H         PUBLIC        P1
  D:00A0H         PUBLIC        P2
  D:00B0H         PUBLIC        P3
  B:00A8H.7       PUBLIC        EA
  C:0D08H         PUBLIC        _delay
  D:0015H         SYMBOL        flag
  B:00B0H.2       PUBLIC        k3
  C:0CBBH         PUBLIC        main
  D:0016H         SYMBOL        count
  D:0089H         PUBLIC        TMOD
  C:0BEEH         PUBLIC        time0Interrupt
  B:0080H.0       PUBLIC        led
  C:0CB3H         SYMBOL        _?ix1000
  C:0CDEH         PUBLIC        _showYellow
  C:0CA3H         PUBLIC        smg
  B:00A8H.1       PUBLIC        ET0
  C:0CECH         PUBLIC        _hor
  C:0CCEH         PUBLIC        Timer0Init
  D:008CH         PUBLIC        TH0
  B:00A8H.0       PUBLIC        EX0
  B:0088H.0       PUBLIC        IT0
  D:008AH         PUBLIC        TL0
  B:0088H.4       PUBLIC        TR0
  C:0C7FH         PUBLIC        Int0
  D:0017H         SYMBOL        yf
  B:00A0H.2       PUBLIC        LSA
BL51 BANKED LINKER/LOCATER V6.22                                                      03/13/2022  10:47:27  PAGE 3


  B:00A0H.3       PUBLIC        LSB
  B:00A0H.4       PUBLIC        LSC
  C:0A19H         PUBLIC        _dongTaiSmg
  C:0D13H         PUBLIC        Int0Init
  -------         PROC          MAIN
  C:0CBBH         LINE#         27
  C:0CBBH         LINE#         28
  C:0CBEH         LINE#         29
  C:0CBEH         LINE#         30
  C:0CC5H         LINE#         31
  C:0CCCH         LINE#         32
  -------         ENDPROC       MAIN
  -------         PROC          TIME0INTERRUPT
  -------         DO            
  D:0013H         SYMBOL        i
  -------         ENDDO         
  C:0BEEH         LINE#         35
  C:0BF7H         LINE#         37
  C:0BFAH         LINE#         38
  C:0BFDH         LINE#         39
  C:0C05H         LINE#         40
  C:0C0FH         LINE#         41
  C:0C13H         LINE#         42
  C:0C16H         LINE#         43
  C:0C16H         LINE#         44
  C:0C19H         LINE#         45
  C:0C25H         LINE#         47
  C:0C25H         LINE#         48
  C:0C2CH         LINE#         49
  C:0C2FH         LINE#         50
  C:0C31H         LINE#         51
  C:0C34H         LINE#         52
  C:0C34H         LINE#         53
  C:0C34H         LINE#         55
  -------         ENDPROC       TIME0INTERRUPT
  -------         PROC          TIMER0INIT
  C:0CCEH         LINE#         56
  C:0CCEH         LINE#         57
  C:0CD1H         LINE#         58
  C:0CD4H         LINE#         59
  C:0CD7H         LINE#         60
  C:0CD9H         LINE#         61
  C:0CDBH         LINE#         62
  C:0CDDH         LINE#         63
  -------         ENDPROC       TIMER0INIT
  -------         PROC          _DELAY
  D:0006H         SYMBOL        i
  C:0D08H         LINE#         64
  C:0D08H         LINE#         65
  C:0D12H         LINE#         66
  -------         ENDPROC       _DELAY
  -------         PROC          INT0INIT
  C:0D13H         LINE#         68
  C:0D13H         LINE#         69
  C:0D15H         LINE#         70
  C:0D17H         LINE#         71
  C:0D19H         LINE#         72
BL51 BANKED LINKER/LOCATER V6.22                                                      03/13/2022  10:47:27  PAGE 4


  -------         ENDPROC       INT0INIT
  -------         PROC          INT0
  C:0C7FH         LINE#         74
  C:0C8CH         LINE#         75
  C:0C93H         LINE#         76
  C:0C96H         LINE#         77
  C:0C98H         LINE#         78
  C:0C98H         LINE#         79
  -------         ENDPROC       INT0
  -------         PROC          _DONGTAISMG
  D:0008H         SYMBOL        num
  -------         DO            
  D:0005H         SYMBOL        i
  D:000AH         SYMBOL        len
  D:000BH         SYMBOL        shu
  -------         ENDDO         
  C:0A19H         LINE#         80
  C:0A1DH         LINE#         81
  C:0A32H         LINE#         82
  C:0A3FH         LINE#         83
  C:0A53H         LINE#         84
  C:0A67H         LINE#         85
  C:0A7BH         LINE#         86
  C:0A8FH         LINE#         87
  C:0AADH         LINE#         88
  C:0ACBH         LINE#         89
  C:0AE9H         LINE#         90
  C:0AF1H         LINE#         91
  C:0B1BH         LINE#         92
  C:0B1BH         LINE#         93
  C:0B1DH         LINE#         94
  C:0B1FH         LINE#         95
  C:0B1FH         LINE#         96
  C:0B25H         LINE#         97
  C:0B27H         LINE#         98
  C:0B27H         LINE#         99
  C:0B29H         LINE#         100
  C:0B2BH         LINE#         101
  C:0B2BH         LINE#         102
  C:0B31H         LINE#         103
  C:0B33H         LINE#         104
  C:0B33H         LINE#         105
  C:0B35H         LINE#         106
  C:0B37H         LINE#         107
  C:0B37H         LINE#         108
  C:0B3DH         LINE#         109
  C:0B3FH         LINE#         110
  C:0B3FH         LINE#         111
  C:0B41H         LINE#         112
  C:0B43H         LINE#         113
  C:0B43H         LINE#         114
  C:0B49H         LINE#         115
  C:0B49H         LINE#         116
  C:0B49H         LINE#         117
  C:0B54H         LINE#         118
  C:0B5BH         LINE#         119
  C:0B5EH         LINE#         120
BL51 BANKED LINKER/LOCATER V6.22                                                      03/13/2022  10:47:27  PAGE 5


  C:0B61H         LINE#         121
  -------         ENDPROC       _DONGTAISMG
  -------         PROC          _SHOWYELLOW
  D:0007H         SYMBOL        flag
  D:0005H         SYMBOL        show
  C:0CDEH         LINE#         122
  C:0CDEH         LINE#         123
  C:0CE1H         LINE#         124
  C:0CE4H         LINE#         125
  C:0CE7H         LINE#         126
  C:0CE8H         LINE#         127
  C:0CEBH         LINE#         128
  C:0CEBH         LINE#         129
  -------         ENDPROC       _SHOWYELLOW
  -------         PROC          _HOR
  D:0007H         SYMBOL        flag
  D:0005H         SYMBOL        yell
  C:0CECH         LINE#         130
  C:0CECH         LINE#         131
  C:0CEFH         LINE#         132
  C:0CF2H         LINE#         133
  C:0CF4H         LINE#         134
  C:0CF7H         LINE#         135
  C:0CF7H         LINE#         136
  -------         ENDPROC       _HOR
  -------         ENDMOD        MAIN

  -------         MODULE        ?C?COPY
  C:08D0H         PUBLIC        ?C?COPY
  -------         ENDMOD        ?C?COPY

  -------         MODULE        ?C?UIDIV
  C:08F6H         PUBLIC        ?C?UIDIV
  -------         ENDMOD        ?C?UIDIV

  -------         MODULE        ?C?SLDIV
  C:0C3BH         PUBLIC        ?C?SLDIV
  -------         ENDMOD        ?C?SLDIV

  -------         MODULE        ?C?ULDIV
  C:0987H         PUBLIC        ?C?ULDIV
  -------         ENDMOD        ?C?ULDIV

*** WARNING L16: UNCALLED SEGMENT, IGNORED FOR OVERLAY PROCESS
    SEGMENT: ?PR?INT0INIT?MAIN

******************************************************************************
* RESTRICTED VERSION WITH 0800H BYTE CODE SIZE LIMIT; USED: 0236H BYTE (27%) *
******************************************************************************

Program Size: data=25.0 xdata=0 code=1315
LINK/LOCATE RUN COMPLETE.  1 WARNING(S),  0 ERROR(S)
