:100CA3003F065B4F666D7D077F6F777C395E797199
:080CB300000000000000000039
:0D0CFA0001161E0115000117000213000075
:100CBB00120CCEAF167E00120A19AD17AF15120C1F
:030CCB00EC80F0CA
:03000B00020BEEF7
:090BEE00C0E0C0D075D000C007C2
:100BF700758CFC758A180514E5147002051364E8F2
:100C07007004E51364037025F513F514D5160F75F5
:100C1700161EE51570047F0180027F008F15E5160B
:0D0C2700D394055005751701800375170063
:070C3400D007D0D0D0E03260
:100CCE00438901758CFC758A18D2A9D2AFD28C22B9
:0B0D0800EF1FAC0670011E4C70F622BD
:070D1300D288D2A8D2AF2262
:03000300020C7F6D
:100C7F00C0E0C0D075D000C004C006C0077FE87EBA
:100C8F0003120D0820B202B280D007D006D004D0D4
:040C9F00D0D0E0329F
:040A19008E088F09AB
:100A1D00E4FD750A08780B7C007BFF7A0C79B3FE38
:100A2D007F081208D0AE08AF097C007D0A1208F6C7
:100A3D008D12AE08AF097C007D0A1208F67C007D90
:100A4D000A1208F68D11AE08AF097C007D641208FC
:100A5D00F67C007D0A1208F68D10AE08AF097C03F6
:100A6D007DE81208F67C007D0A1208F68D0FAE089F
:100A7D00AF097C277D101208F67C007D0A1208F65E
:100A8D008D0EAE08AF09E4FCFD7BA07A867901F8E6
:100A9D00120C3BE47B0AFAF9F8120C3BAF038F0DF5
:100AAD00AE08AF09E4FCFD7B407A42790FF8120CD9
:100ABD003BE47B0AFAF9F8120C3BAF038F0CAE083E
:100ACD00AF09E4FCFD7B807A967998F8120C3BE433
:100ADD007B0AFAF9F8120C3BAF038F0BE4FDEDC363
:100AED00950A5070ED2408C3950AB40800504D9036
:100AFD000B03F8282873020B1B020B1F020B270296
:100B0D000B2B020B33020B37020B3F020B43C2A21E
:100B1D008002D2A2C2A3C2A48022C2A28002D2A20B
:100B2D00D2A3C2A48016C2A28002D2A2C2A3D2A412
:100B3D00800AC2A28002D2A2D2A3D2A4740B2DF835
:100B4D00E6900CA393F5807F327E00120D08E4F53C
:040B5D00800D808AFD
:010B61002271
:0E0CDE00ED600AEF6004639010226390022222
:0E0CEC00EF60057590B3800375905E020CDE1C
:03000000020B628E
:0C0B6200787FE4F6D8FD758117020BA91E
:10080000E709F608DFFA8046E709F208DFFA803EDA
:1008100088828C83E709F0A3DFFA8032E309F608C7
:10082000DFFA8078E309F208DFFA807088828C832F
:10083000E309F0A3DFFA806489828A83E0A3F608E3
:10084000DFFA805889828A83E0A3F208DFFA804CBD
:1008500080D280FA80C680D4806980F28033801094
:1008600080A680EA809A80A880DA80E280CA8033FD
:1008700089828A83ECFAE493A3C8C582C8CCC58375
:10088000CCF0A3C8C582C8CCC583CCDFE9DEE78045
:100890000D89828A83E493A3F608DFF9ECFAA9F0C4
:1008A000EDFB2289828A83ECFAE0A3C8C582C8CC1A
:1008B000C583CCF0A3C8C582C8CCC583CCDFEADE33
:1008C000E880DB89828A83E493A3F208DFF980CC95
:1008D00088F0EF60010E4E60C388F0ED2402B4048E
:1008E0000050B9F582EB2402B4040050AF23234535
:0608F00082239008507302
:1008F600BC000BBE0029EF8DF084FFADF022E4CCE6
:10090600F875F008EF2FFFEE33FEEC33FCEE9DECAE
:10091600984005FCEE9DFE0FD5F0E9E4CEFD22EDF4
:10092600F8F5F0EE8420D21CFEADF075F008EF2F3E
:10093600FFED33FD4007985006D5F0F222C398FD2F
:050946000FD5F0EA22CC
:100C3B00C2D5E830E70FB2D5E4C39BFBE49AFAE4E4
:100C4B0099F9E498F8EC30E717B2D5120C71120948
:100C5B0087E4C39BFBE49AFAE499F9E498F88003E0
:100C6B0012098730D50DE4C39FFFE49EFEE49DFD82
:040C7B00E49CFC22D7
:100B6E00020CBBE493A3F8E493A34003F68001F2D6
:100B7E0008DFF48029E493A3F85407240CC8C33388
:100B8E00C4540F4420C8834004F456800146F6DF57
:100B9E00E4800B0102040810204080900CFAE47EE1
:100BAE00019360BCA3FF543F30E509541FFEE4934C
:100BBE00A360010ECF54C025E060A840B8E493A313
:100BCE00FAE493A3F8E493A3C8C582C8CAC583CA3E
:100BDE00F0A3C8C582C8CAC583CADFE9DEE780BEF6
:010D070000EB
:10094B0075F008758200EF2FFFEE33FECD33CDCC63
:10095B0033CCC58233C5829BED9AEC99E5829840E6
:10096B000CF582EE9BFEED9AFDEC99FC0FD5F0D6C3
:10097B00E4CEFBE4CDFAE4CCF9A88222B800C1B9ED
:10098B000059BA002DEC8BF084CFCECDFCE5F0CB2B
:10099B00F97818EF2FFFEE33FEED33FDEC33FCEB64
:1009AB0033FB10D703994004EB99FB0FD8E5E4F91F
:1009BB00FA227818EF2FFFEE33FEED33FDEC33FC0C
:1009CB00C933C910D7059BE99A4007EC9BFCE99A00
:1009DB00F90FD8E0E4C9FAE4CCFB2275F010EF2F45
:1009EB00FFEE33FEED33FDCC33CCC833C810D70745
:1009FB009BEC9AE899400AED9BFDEC9AFCE899F880
:0E0A0B000FD5F0DAE4CDFBE4CCFAE4C8F92212
:00000001FF
