:1004B1003F065B4F666D7D077F6F777C395E797193
:0804C100000000000000000033
:0D05080001161E011500011700021300006E
:1004C9001204DCAF167E00120227AD17AF15120415
:0304D900FA80F0B6
:03000B000203FCF1
:0903FC00C0E0C0D075D000C007BC
:10040500758CFC758A180514E5147002051364E8EB
:100415007004E51364037025F513F514D5160F75EF
:10042500161EE51570047F0180027F008F15E51605
:0D043500D39405500575170180037517005D
:07044200D007D0D0D0E0325A
:1004DC00438901758CFC758A18D2A9D2AFD28C22B3
:0B051600EF1FAC0670011E4C70F622B7
:07052100D288D2A8D2AF225C
:0300030002048D67
:10048D00C0E0C0D075D000C004C006C0077FE87EB4
:10049D000312051620B202B280D007D006D004D0C8
:0404AD00D0D0E03299
:040227008E088F09A5
:10022B00E4FD750A08780B7C007BFF7A0479C1FE2C
:10023B007F081200DEAE08AF097C007D0A120104B4
:10024B008D12AE08AF097C007D0A1201047C007D83
:10025B000A1201048D11AE08AF097C007D641201F6
:10026B00047C007D0A1201048D10AE08AF097C03DB
:10027B007DE81201047C007D0A1201048D0FAE088B
:10028B00AF097C277D101201047C007D0A1201044A
:10029B008D0EAE08AF09E4FCFD7BA07A867901F8E0
:1002AB00120449E47B0AFAF9F8120449AF038F0DE3
:1002BB00AE08AF09E4FCFD7B407A42790FF81204DB
:1002CB0049E47B0AFAF9F8120449AF038F0CAE0824
:1002DB00AF09E4FCFD7B807A967998F8120449E427
:1002EB007B0AFAF9F8120449AF038F0BE4FDEDC357
:1002FB00950A5070ED2408C3950AB40800504D9030
:10030B000311F828287302032902032D0203350277
:10031B00033902034102034502034D020351C2A2FA
:10032B008002D2A2C2A3C2A48022C2A28002D2A205
:10033B00D2A3C2A48016C2A28002D2A2C2A3D2A40C
:10034B00800AC2A28002D2A2D2A3D2A4740B2DF82F
:10035B00E69004B193F5807F327E00120516E4F52A
:04036B00800D808AF7
:01036F00226B
:0E04EC00ED600AEF600463901022639002221C
:0E04FA00EF60057590B3800375905E0204EC10
:0300000002037088
:0C037000787FE4F6D8FD7581170203B712
:10000E00E709F608DFFA8046E709F208DFFA803ED4
:10001E0088828C83E709F0A3DFFA8032E309F608C1
:10002E00DFFA8078E309F208DFFA807088828C8329
:10003E00E309F0A3DFFA806489828A83E0A3F608DD
:10004E00DFFA805889828A83E0A3F208DFFA804CB7
:10005E0080D280FA80C680D4806980F2803380108E
:10006E0080A680EA809A80A880DA80E280CA8033F7
:10007E0089828A83ECFAE493A3C8C582C8CCC5836F
:10008E00CCF0A3C8C582C8CCC583CCDFE9DEE7803F
:10009E000D89828A83E493A3F608DFF9ECFAA9F0BE
:1000AE00EDFB2289828A83ECFAE0A3C8C582C8CC14
:1000BE00C583CCF0A3C8C582C8CCC583CCDFEADE2D
:1000CE00E880DB89828A83E493A3F208DFF980CC8F
:1000DE0088F0EF60010E4E60C388F0ED2402B40488
:1000EE000050B9F582EB2402B4040050AF2323452F
:0600FE00822390005E73F6
:10010400BC000BBE0029EF8DF084FFADF022E4CCDF
:10011400F875F008EF2FFFEE33FEEC33FCEE9DECA8
:10012400984005FCEE9DFE0FD5F0E9E4CEFD22EDEE
:10013400F8F5F0EE8420D21CFEADF075F008EF2F38
:10014400FFED33FD4007985006D5F0F222C398FD29
:050154000FD5F0EA22C6
:10044900C2D5E830E70FB2D5E4C39BFBE49AFAE4DE
:1004590099F9E498F8EC30E717B2D512047F120144
:1004690095E4C39BFBE49AFAE499F9E498F88003CC
:1004790012019530D50DE4C39FFFE49EFEE49DFD76
:04048900E49CFC22D1
:10037C000204C9E493A3F8E493A34003F68001F2CA
:10038C0008DFF48029E493A3F85407240CC8C33382
:10039C00C4540F4420C8834004F456800146F6DF51
:1003AC00E4800B0102040810204080900508E47ED4
:1003BC00019360BCA3FF543F30E509541FFEE49346
:1003CC00A360010ECF54C025E060A840B8E493A30D
:1003DC00FAE493A3F8E493A3C8C582C8CAC583CA38
:1003EC00F0A3C8C582C8CAC583CADFE9DEE780BEF0
:0105150000E5
:1001590075F008758200EF2FFFEE33FECD33CDCC5D
:1001690033CCC58233C5829BED9AEC99E5829840E0
:100179000CF582EE9BFEED9AFDEC99FC0FD5F0D6BD
:10018900E4CEFBE4CDFAE4CCF9A88222B800C1B9E7
:100199000059BA002DEC8BF084CFCECDFCE5F0CB25
:1001A900F97818EF2FFFEE33FEED33FDEC33FCEB5E
:1001B90033FB10D703994004EB99FB0FD8E5E4F919
:1001C900FA227818EF2FFFEE33FEED33FDEC33FC06
:1001D900C933C910D7059BE99A4007EC9BFCE99AFA
:1001E900F90FD8E0E4C9FAE4CCFB2275F010EF2F3F
:1001F900FFEE33FEED33FDCC33CCC833C810D7073F
:100209009BEC9AE899400AED9BFDEC9AFCE899F879
:0E0219000FD5F0DAE4CDFBE4CCFAE4C8F9220C
:00000001FF
