:1002E7003F065B4F666D7D077F6F777C395E79715F
:0303070002028B64
:02023D008F0927
:10023F00E4F50AE509C4131313540124FF92B4E53E
:10024F000925E0F5091201A8D2B6050AE50AC394FB
:0A025F000840E0C2B51201AAD2B5B2
:010269002272
:10028B00750801AF0812023DAF087801EF08800135
:0E029B0023D8FDF5087FC87E001201AE80E575
:10020E00E4F50DF50EC2967F01FE1201AED296E414
:10021E00F50EE50D25E0F50D1201A8A297E4334287
:0E022E000DD2B6050EE50EC3940840E6AF0DE6
:01023C00229F
:1002D700E4F58012020EEFF460F9EFF4F58080F395
:10000300E4F50FF51075900FE590640F60F77F32FC
:100013007E001201AEE590640F6025E590540F2435
:10002300F5601024FE601114601324077012E4F5C8
:1000330010800D7510018008751002800375100380
:100043007590F0E59064F060BC7F327E001201AEE3
:10005300E59064F06028E59054F0C4540F24F560F3
:100063001024FE601114601324077012E4F50F804E
:100073000D750F018008750F028003750F0375F06E
:1000830004E50FA42510F582E435F0F583E5822419
:10009300E7F582E5833402F583E493F4F580020007
:0100A3000854
:10026A007580FFE590F515E590F460F77F647E00F0
:10027A001201AEE580F46515F580E590F460E4803E
:01028A00F97A
:10012F00E4F512E4F511E511B40800504D900143C8
:10013F00F828287302015B02015F02016702016B5D
:10014F0002017302017702017F020183C2A28002C2
:10015F00D2A2C2A3C2A48022C2A28002D2A2D2A3E0
:10016F00C2A48016C2A28002D2A2C2A3D2A4800AC5
:10017F00C2A28002D2A2D2A3D2A4AF120512EF5410
:10018F000F9002E793F5807FC87E001201AE051134
:09019F00E511C39408408F808A29
:1002A900E4F516AF160516EF540F9002E793F4F52F
:0A02B900807F647E001201AE80E930
:04030300C29480FE22
:1002C300D2957F327E001201AEC2957F647E00120A
:0402D30001AE80EC0C
:1001DC007513007514017580017FE87E031201AE62
:1001EC00E58025E0F5800514E514AE1370020513C7
:1001FC0014FF7C007D081200A4ED4C70DC758001AE
:02020C0080D799
:0601A800C2B67F017E00DB
:1001AE00EF1FAC0670011ED39400EC648094804067
:0101BE001C24
:1001BF00750B00750C6EE50C150CAC0B7002150B66
:0C01CF00D39400EC6480948040D580EA5A
:0101DB002201
:030000000202F702
:0C02F700787FE4F6D8FD7581160203073D
:1000A400C2D5EC30E709B2D5E4C39DFDE49CFCEE77
:1000B40030E715B2D5E4C39FFFE49EFE1200DAC315
:1000C400E49DFDE49CFC80031200DA30D507C3E410
:0600D4009FFFE49EFE22E6
:1000DA00BC000BBE0029EF8DF084FFADF022E4CC0A
:1000EA00F875F008EF2FFFEE33FEEC33FCEE9DECD3
:1000FA00984005FCEE9DFE0FD5F0E9E4CEFD22ED19
:10010A00F8F5F0EE8420D21CFEADF075F008EF2F62
:10011A00FFED33FD4007985006D5F0F222C398FD53
:05012A000FD5F0EA22F0
:00000001FF
