:100CA9003F065B4F666D7D077F6F777C395E797193
:080CB900000000000000000033
:100CC10002190000041B00000000041500000000D0
:100BD500120CD2120CE2AF18AE17AD16AC151209F5
:100BE500C4208EF2AF8DEFFEE4251EFBEE351DFA17
:100BF500E4351CF9E4351BF8AF8BE4FCFDFEEB2F67
:100C0500F518EE3AF517ED39F516EC38F515E4F566
:100C15001EF51DF51CF51BF58DF58BD28CD28E803E
:010C2500B519
:100CD200438901758C3C758AB0D2A9D2AFD28C22DD
:03000B00020C6A7A
:100C6A00C0E0758C3C758AB0051AE51A7002051940
:100C7A00641445197008F519F51AC28EC28CD0E0B1
:010C8A003237
:0F0CE200438950E4F58DF58BD2ABD2AFD28E2281
:0B0CF100EF1FAC0670011E4C70F622D5
:03001B00020C8B49
:100C8B00C0E0C0D0E4251EF51EE4351DF51DE51CA6
:0E0C9B003401F51CE4351BF51BD0D0D0E0323F
:0809C4008F0B8E0A8D098C08CF
:1009CC00E4FD750C08780D7C007BFF7A0C79B9FE80
:1009DC007F081208D0E47B0AFAF9F8AF0BAE0AAD27
:1009EC0009AC08120C26AF038F14E47B0AFAF9F851
:1009FC00AF0BAE0AAD09AC08120C26E47B0AFAF96F
:100A0C00F8120C26AF038F13E47B64FAF9F8AF0BE2
:100A1C00AE0AAD09AC08120C26E47B0AFAF9F812FE
:100A2C000C26AF038F12E47BE87A03F9F8AF0BAE18
:100A3C000AAD09AC08120C26E47B0AFAF9F8120C80
:100A4C0026AF038F11E47B107A27F9F8AF0BAE0AAF
:100A5C00AD09AC08120C26E47B0AFAF9F8120C2644
:100A6C00AF038F107BA07A8679017800AF0BAE0AAA
:100A7C00AD09AC08120C26E47B0AFAF9F8120C2624
:100A8C00AF038F0F7B407A42790F7800AF0BAE0A21
:100A9C00AD09AC08120C26E47B0AFAF9F8120C2604
:100AAC00AF038F0E7B807A9679987800AF0BAE0AE5
:100ABC00AD09AC08120C26E47B0AFAF9F8120C26E4
:100ACC00AF038F0DE4FDEDC3950C5070ED2408C3FE
:100ADC00950CB40800504D900AEAF8282873020BC4
:100AEC0002020B06020B0E020B12020B1A020B1E59
:100AFC00020B26020B2AC2A28002D2A2C2A3C2A45B
:100B0C008022C2A28002D2A2D2A3C2A48016C2A208
:100B1C008002D2A2C2A3D2A4800AC2A28002D2A214
:100B2C00D2A3D2A4740D2DF8E6900CA993F5807F76
:0C0B3C000A7E00120CF1E4F5800D808AA6
:010B4800228A
:03000000020B49A7
:0C0B4900787FE4F6D8FD75811E020B9049
:10080000E709F608DFFA8046E709F208DFFA803EDA
:1008100088828C83E709F0A3DFFA8032E309F608C7
:10082000DFFA8078E309F208DFFA807088828C832F
:10083000E309F0A3DFFA806489828A83E0A3F608E3
:10084000DFFA805889828A83E0A3F208DFFA804CBD
:1008500080D280FA80C680D4806980F28033801094
:1008600080A680EA809A80A880DA80E280CA8033FD
:1008700089828A83ECFAE493A3C8C582C8CCC58375
:10088000CCF0A3C8C582C8CCC583CCDFE9DEE78045
:100890000D89828A83E493A3F608DFF9ECFAA9F0C4
:1008A000EDFB2289828A83ECFAE0A3C8C582C8CC1A
:1008B000C583CCF0A3C8C582C8CCC583CCDFEADE33
:1008C000E880DB89828A83E493A3F208DFF980CC95
:1008D00088F0EF60010E4E60C388F0ED2402B4048E
:1008E0000050B9F582EB2402B4040050AF23234535
:0608F00082239008507302
:100C2600C2D5E830E70FB2D5E4C39BFBE49AFAE4F9
:100C360099F9E498F8EC30E717B2D5120C5C120972
:100C460032E4C39BFBE49AFAE499F9E498F880034A
:100C560012093230D50DE4C39FFFE49EFEE49DFDEC
:040C6600E49CFC22EC
:100B5500020BD5E493A3F8E493A34003F68001F2D6
:100B650008DFF48029E493A3F85407240CC8C333A1
:100B7500C4540F4420C8834004F456800146F6DF70
:100B8500E4800B0102040810204080900CC1E47E33
:100B9500019360BCA3FF543F30E509541FFEE49365
:100BA500A360010ECF54C025E060A840B8E493A32C
:100BB500FAE493A3F8E493A3C8C582C8CAC583CA57
:100BC500F0A3C8C582C8CAC583CADFE9DEE780BE0F
:010CD1000022
:1008F60075F008758200EF2FFFEE33FECD33CDCCB9
:1009060033CCC58233C5829BED9AEC99E58298403B
:100916000CF582EE9BFEED9AFDEC99FC0FD5F0D618
:10092600E4CEFBE4CDFAE4CCF9A88222B800C1B942
:100936000059BA002DEC8BF084CFCECDFCE5F0CB80
:10094600F97818EF2FFFEE33FEED33FDEC33FCEBB9
:1009560033FB10D703994004EB99FB0FD8E5E4F974
:10096600FA227818EF2FFFEE33FEED33FDEC33FC61
:10097600C933C910D7059BE99A4007EC9BFCE99A55
:10098600F90FD8E0E4C9FAE4CCFB2275F010EF2F9A
:10099600FFEE33FEED33FDCC33CCC833C810D7079A
:1009A6009BEC9AE899400AED9BFDEC9AFCE899F8D5
:0E09B6000FD5F0DAE4CDFBE4CCFAE4C8F92268
:00000001FF
