BL51 BANKED LINKER/LOCATER V6.22                                                        03/13/2022  23:02:08  PAGE 1


BL51 BANKED LINKER/LOCATER V6.22, INVOKED BY:
D:\KEIL\C51\BIN\BL51.EXE main.obj TO main


MEMORY MODEL: SMALL


INPUT MODULES INCLUDED:
  main.obj (MAIN)
  D:\KEIL\C51\LIB\C51S.LIB (?C_STARTUP)
  D:\KEIL\C51\LIB\C51S.LIB (?C?COPY)
  D:\KEIL\C51\LIB\C51S.LIB (?C?SLDIV)
  D:\KEIL\C51\LIB\C51S.LIB (?C_INIT)
  D:\KEIL\C51\LIB\C51S.LIB (?C?ULDIV)


LINK MAP OF MODULE:  main (MAIN)


            TYPE    BASE      LENGTH    RELOCATION   SEGMENT NAME
            -----------------------------------------------------

            * * * * * * *   D A T A   M E M O R Y   * * * * * * *
            REG     0000H     0008H     ABSOLUTE     "REG BANK 0"
            DATA    0008H     000DH     UNIT         _DATA_GROUP_
            DATA    0015H     000AH     UNIT         ?DT?MAIN
            IDATA   001FH     0001H     UNIT         ?STACK

            * * * * * * *   C O D E   M E M O R Y   * * * * * * *
            CODE    0000H     0003H     ABSOLUTE     
                    0003H     0008H                  *** GAP ***
            CODE    000BH     0003H     ABSOLUTE     
                    000EH     000DH                  *** GAP ***
            CODE    001BH     0003H     ABSOLUTE     
                    001EH     07E2H                  *** GAP ***
            CODE    0800H     01C4H     UNIT         ?C?LIB_CODE
            CODE    09C4H     0185H     UNIT         ?PR?_DONGTAISMG?MAIN
            CODE    0B49H     008CH     UNIT         ?C_C51STARTUP
            CODE    0BD5H     0051H     UNIT         ?PR?MAIN?MAIN
            CODE    0C26H     0044H     UNIT         ?C?LDIV
            CODE    0C6AH     0021H     UNIT         ?PR?TIME0?MAIN
            CODE    0C8BH     001EH     UNIT         ?PR?COUNT?MAIN
            CODE    0CA9H     0018H     UNIT         ?CO?MAIN
            CODE    0CC1H     0011H     UNIT         ?C_INITSEG
            CODE    0CD2H     0010H     UNIT         ?PR?TIME0INIT?MAIN
            CODE    0CE2H     000FH     UNIT         ?PR?COUNT1INIT?MAIN
            CODE    0CF1H     000BH     UNIT         ?PR?_DELAY?MAIN



OVERLAY MAP OF MODULE:   main (MAIN)


SEGMENT                          DATA_GROUP 
  +--> CALLED SEGMENT          START    LENGTH
----------------------------------------------
?C_C51STARTUP                  -----    -----
  +--> ?PR?MAIN?MAIN
BL51 BANKED LINKER/LOCATER V6.22                                                      03/13/2022  23:02:08  PAGE 2


  +--> ?C_INITSEG

?PR?MAIN?MAIN                  -----    -----
  +--> ?PR?TIME0INIT?MAIN
  +--> ?PR?COUNT1INIT?MAIN
  +--> ?PR?_DONGTAISMG?MAIN

?PR?_DONGTAISMG?MAIN           0008H    000DH
  +--> ?CO?MAIN
  +--> ?PR?_DELAY?MAIN



SYMBOL TABLE OF MODULE:  main (MAIN)

  VALUE           TYPE          NAME
  ----------------------------------

  -------         MODULE        MAIN
  C:0000H         SYMBOL        _ICE_DUMMY_
  D:0080H         PUBLIC        P0
  D:00A0H         PUBLIC        P2
  D:00B0H         PUBLIC        P3
  B:00A8H.7       PUBLIC        EA
  C:0CF1H         PUBLIC        _delay
  C:0BD5H         PUBLIC        main
  C:0C8BH         PUBLIC        count
  D:0015H         SYMBOL        freq
  D:0089H         PUBLIC        TMOD
  D:0019H         SYMBOL        timeCount
  C:0CB9H         SYMBOL        _?ix1000
  C:0CA9H         PUBLIC        smg
  B:00A8H.1       PUBLIC        ET0
  B:00A8H.3       PUBLIC        ET1
  D:008CH         PUBLIC        TH0
  D:008DH         PUBLIC        TH1
  D:008AH         PUBLIC        TL0
  D:008BH         PUBLIC        TL1
  C:0CE2H         PUBLIC        Count1Init
  D:001BH         SYMBOL        sum
  B:0088H.4       PUBLIC        TR0
  B:0088H.6       PUBLIC        TR1
  C:0CD2H         PUBLIC        Time0Init
  B:00A0H.2       PUBLIC        LSA
  C:0C6AH         PUBLIC        time0
  B:00A0H.3       PUBLIC        LSB
  B:00A0H.4       PUBLIC        LSC
  C:09C4H         PUBLIC        _dongTaiSmg
  -------         PROC          MAIN
  C:0BD5H         LINE#         22
  C:0BD5H         LINE#         23
  C:0BD8H         LINE#         24
  C:0BDBH         LINE#         25
  C:0BDBH         LINE#         27
  C:0BE6H         LINE#         28
  C:0BE9H         LINE#         29
  C:0C13H         LINE#         30
BL51 BANKED LINKER/LOCATER V6.22                                                      03/13/2022  23:02:08  PAGE 3


  C:0C1CH         LINE#         32
  C:0C1EH         LINE#         33
  C:0C20H         LINE#         34
  C:0C22H         LINE#         35
  C:0C24H         LINE#         37
  C:0C24H         LINE#         38
  -------         ENDPROC       MAIN
  -------         PROC          TIME0INIT
  C:0CD2H         LINE#         40
  C:0CD2H         LINE#         41
  C:0CD5H         LINE#         42
  C:0CD8H         LINE#         43
  C:0CDBH         LINE#         44
  C:0CDDH         LINE#         45
  C:0CDFH         LINE#         46
  C:0CE1H         LINE#         47
  -------         ENDPROC       TIME0INIT
  -------         PROC          TIME0
  C:0C6AH         LINE#         48
  C:0C6CH         LINE#         49
  C:0C6FH         LINE#         50
  C:0C72H         LINE#         51
  C:0C7AH         LINE#         52
  C:0C80H         LINE#         53
  C:0C84H         LINE#         54
  C:0C86H         LINE#         55
  C:0C88H         LINE#         56
  C:0C88H         LINE#         58
  -------         ENDPROC       TIME0
  -------         PROC          COUNT1INIT
  C:0CE2H         LINE#         59
  C:0CE2H         LINE#         60
  C:0CE5H         LINE#         61
  C:0CE8H         LINE#         62
  C:0CEAH         LINE#         63
  C:0CECH         LINE#         64
  C:0CEEH         LINE#         65
  C:0CF0H         LINE#         66
  -------         ENDPROC       COUNT1INIT
  -------         PROC          _DELAY
  D:0006H         SYMBOL        i
  C:0CF1H         LINE#         67
  C:0CF1H         LINE#         68
  C:0CFBH         LINE#         69
  -------         ENDPROC       _DELAY
  -------         PROC          COUNT
  C:0C8BH         LINE#         71
  C:0C8FH         LINE#         72
  C:0CA4H         LINE#         73
  -------         ENDPROC       COUNT
  -------         PROC          _DONGTAISMG
  D:0008H         SYMBOL        num
  -------         DO            
  D:0005H         SYMBOL        i
  D:000CH         SYMBOL        len
  D:000DH         SYMBOL        shu
  -------         ENDDO         
BL51 BANKED LINKER/LOCATER V6.22                                                      03/13/2022  23:02:08  PAGE 4


  C:09C4H         LINE#         75
  C:09CCH         LINE#         76
  C:09E1H         LINE#         77
  C:09F6H         LINE#         78
  C:0A14H         LINE#         79
  C:0A32H         LINE#         80
  C:0A51H         LINE#         81
  C:0A70H         LINE#         82
  C:0A90H         LINE#         83
  C:0AB0H         LINE#         84
  C:0AD0H         LINE#         85
  C:0AD8H         LINE#         86
  C:0B02H         LINE#         87
  C:0B02H         LINE#         88
  C:0B04H         LINE#         89
  C:0B06H         LINE#         90
  C:0B06H         LINE#         91
  C:0B0CH         LINE#         92
  C:0B0EH         LINE#         93
  C:0B0EH         LINE#         94
  C:0B10H         LINE#         95
  C:0B12H         LINE#         96
  C:0B12H         LINE#         97
  C:0B18H         LINE#         98
  C:0B1AH         LINE#         99
  C:0B1AH         LINE#         100
  C:0B1CH         LINE#         101
  C:0B1EH         LINE#         102
  C:0B1EH         LINE#         103
  C:0B24H         LINE#         104
  C:0B26H         LINE#         105
  C:0B26H         LINE#         106
  C:0B28H         LINE#         107
  C:0B2AH         LINE#         108
  C:0B2AH         LINE#         109
  C:0B30H         LINE#         110
  C:0B30H         LINE#         111
  C:0B30H         LINE#         112
  C:0B3BH         LINE#         113
  C:0B42H         LINE#         114
  C:0B45H         LINE#         115
  C:0B48H         LINE#         116
  -------         ENDPROC       _DONGTAISMG
  -------         ENDMOD        MAIN

  -------         MODULE        ?C?COPY
  C:08D0H         PUBLIC        ?C?COPY
  -------         ENDMOD        ?C?COPY

  -------         MODULE        ?C?SLDIV
  C:0C26H         PUBLIC        ?C?SLDIV
  -------         ENDMOD        ?C?SLDIV

  -------         MODULE        ?C?ULDIV
  C:0932H         PUBLIC        ?C?ULDIV
  -------         ENDMOD        ?C?ULDIV

BL51 BANKED LINKER/LOCATER V6.22                                                      03/13/2022  23:02:08  PAGE 5


******************************************************************************
* RESTRICTED VERSION WITH 0800H BYTE CODE SIZE LIMIT; USED: 026DH BYTE (30%) *
******************************************************************************

Program Size: data=32.0 xdata=0 code=1285
LINK/LOCATE RUN COMPLETE.  0 WARNING(S),  0 ERROR(S)
