:1008D4003F065B4F666D7D077F6F777C395E79716C
:0108E4000013
:0308FA00010A00F0
:1008E500D2AFD2AB438910758DFC758B18D28E2291
:0508F5001208E580FE81
:03001B0002088C4C
:0D088C00C0E0C083C082C0D075D000C0079E
:10089900758DFC758B180509E50970020508B4E822
:1008A9001FE508B4031A750800750900AF0A050A9F
:1008B900EF9008D493F4F580E50AB41003750A00A3
:0B08C900D007D0D0D082D083D0E03226
:03000000020800F3
:0C080000787FE4F6D8FD75810A020847F5
:10080C000208F5E493A3F8E493A34003F68001F205
:10081C0008DFF48029E493A3F85407240CC8C333ED
:10082C00C4540F4420C8834004F456800146F6DFBC
:10083C00E4800B01020408102040809008FAE47E4A
:10084C00019360BCA3FF543F30E509541FFEE493B1
:10085C00A360010ECF54C025E060A840B8E493A378
:10086C00FAE493A3F8E493A3C8C582C8CAC583CAA3
:10087C00F0A3C8C582C8CAC583CADFE9DEE780BE5B
:0108FD0000FA
:00000001FF
