BL51 BANKED LINKER/LOCATER V6.22                                                        03/13/2022  23:01:02  PAGE 1


BL51 BANKED LINKER/LOCATER V6.22, INVOKED BY:
D:\KEIL\C51\BIN\BL51.EXE main.obj TO timer1 RAMSIZE (256)


MEMORY MODEL: SMALL


INPUT MODULES INCLUDED:
  main.obj (MAIN)
  D:\KEIL\C51\LIB\C51S.LIB (?C_STARTUP)
  D:\KEIL\C51\LIB\C51S.LIB (?C_INIT)


LINK MAP OF MODULE:  timer1 (MAIN)


            TYPE    BASE      LENGTH    RELOCATION   SEGMENT NAME
            -----------------------------------------------------

            * * * * * * *   D A T A   M E M O R Y   * * * * * * *
            REG     0000H     0008H     ABSOLUTE     "REG BANK 0"
            DATA    0008H     0003H     UNIT         ?DT?MAIN
            IDATA   000BH     0001H     UNIT         ?STACK

            * * * * * * *   C O D E   M E M O R Y   * * * * * * *
            CODE    0000H     0003H     ABSOLUTE     
                    0003H     0018H                  *** GAP ***
            CODE    001BH     0003H     ABSOLUTE     
                    001EH     07E2H                  *** GAP ***
            CODE    0800H     008CH     UNIT         ?C_C51STARTUP
            CODE    088CH     0048H     UNIT         ?PR?TIMER1?MAIN
            CODE    08D4H     0011H     UNIT         ?CO?MAIN
            CODE    08E5H     0010H     UNIT         ?PR?TIMER1INIT?MAIN
            CODE    08F5H     0005H     UNIT         ?PR?MAIN?MAIN
            CODE    08FAH     0004H     UNIT         ?C_INITSEG



OVERLAY MAP OF MODULE:   timer1 (MAIN)


SEGMENT
  +--> CALLED SEGMENT
---------------------
?PR?TIMER1?MAIN
  +--> ?CO?MAIN

*** NEW ROOT ***************************************************

?C_C51STARTUP
  +--> ?PR?MAIN?MAIN
  +--> ?C_INITSEG

?PR?MAIN?MAIN
  +--> ?PR?TIMER1INIT?MAIN



BL51 BANKED LINKER/LOCATER V6.22                                                      03/13/2022  23:01:02  PAGE 2


SYMBOL TABLE OF MODULE:  timer1 (MAIN)

  VALUE           TYPE          NAME
  ----------------------------------

  -------         MODULE        MAIN
  C:0000H         SYMBOL        _ICE_DUMMY_
  D:0080H         PUBLIC        P0
  D:0090H         PUBLIC        P1
  D:00B0H         PUBLIC        P3
  B:00A8H.7       PUBLIC        EA
  D:00A8H         PUBLIC        IE
  D:00B8H         PUBLIC        IP
  C:08F5H         PUBLIC        main
  D:0098H         PUBLIC        SCON
  D:0089H         PUBLIC        TMOD
  D:0088H         PUBLIC        TCON
  B:00A8H.3       PUBLIC        ET1
  D:008DH         PUBLIC        TH1
  D:008BH         PUBLIC        TL1
  C:088CH         PUBLIC        timer1
  B:0088H.6       PUBLIC        TR1
  D:00C8H         PUBLIC        T2CON
  C:08E5H         PUBLIC        timer1Init
  D:000AH         PUBLIC        n
  C:08D4H         PUBLIC        smgduan
  D:00D0H         PUBLIC        PSW
  -------         PROC          TIMER1INIT
  C:08E5H         LINE#         12
  C:08E5H         LINE#         13
  C:08E5H         LINE#         14
  C:08E7H         LINE#         15
  C:08E9H         LINE#         16
  C:08ECH         LINE#         17
  C:08EFH         LINE#         18
  C:08F2H         LINE#         20
  C:08F4H         LINE#         21
  -------         ENDPROC       TIMER1INIT
  -------         PROC          MAIN
  C:08F5H         LINE#         23
  C:08F5H         LINE#         24
  C:08F5H         LINE#         25
  C:08F8H         LINE#         26
  -------         ENDPROC       MAIN
  -------         PROC          TIMER1
  -------         DO            
  D:0008H         SYMBOL        i
  -------         ENDDO         
  C:088CH         LINE#         29
  C:0899H         LINE#         32
  C:089CH         LINE#         33
  C:089FH         LINE#         34
  C:08A7H         LINE#         35
  C:08AFH         LINE#         36
  C:08AFH         LINE#         37
  C:08B5H         LINE#         38
  C:08C1H         LINE#         39
BL51 BANKED LINKER/LOCATER V6.22                                                      03/13/2022  23:01:02  PAGE 3


  C:08C9H         LINE#         40
  C:08C9H         LINE#         41
  -------         ENDPROC       TIMER1
  -------         ENDMOD        MAIN

******************************************************************************
* RESTRICTED VERSION WITH 0800H BYTE CODE SIZE LIMIT; USED: 0074H BYTE ( 5%) *
******************************************************************************

Program Size: data=12.0 xdata=0 code=260
LINK/LOCATE RUN COMPLETE.  0 WARNING(S),  0 ERROR(S)
